{
  "_format": "hh-sol-artifact-1",
  "contractName": "ThreeBricks1",
  "sourceName": "contracts/ThreeBricks1.sol",
  "abi": [
    {
      "inputs": [],
      "stateMutability": "nonpayable",
      "type": "constructor"
    },
    {
      "anonymous": false,
      "inputs": [
        {
          "indexed": true,
          "internalType": "address",
          "name": "owner",
          "type": "address"
        },
        {
          "indexed": true,
          "internalType": "address",
          "name": "approved",
          "type": "address"
        },
        {
          "indexed": true,
          "internalType": "uint256",
          "name": "tokenId",
          "type": "uint256"
        }
      ],
      "name": "Approval",
      "type": "event"
    },
    {
      "anonymous": false,
      "inputs": [
        {
          "indexed": true,
          "internalType": "address",
          "name": "owner",
          "type": "address"
        },
        {
          "indexed": true,
          "internalType": "address",
          "name": "operator",
          "type": "address"
        },
        {
          "indexed": false,
          "internalType": "bool",
          "name": "approved",
          "type": "bool"
        }
      ],
      "name": "ApprovalForAll",
      "type": "event"
    },
    {
      "anonymous": false,
      "inputs": [
        {
          "indexed": false,
          "internalType": "uint256",
          "name": "_fromTokenId",
          "type": "uint256"
        },
        {
          "indexed": false,
          "internalType": "uint256",
          "name": "_toTokenId",
          "type": "uint256"
        }
      ],
      "name": "BatchMetadataUpdate",
      "type": "event"
    },
    {
      "anonymous": false,
      "inputs": [
        {
          "indexed": false,
          "internalType": "uint256",
          "name": "_tokenId",
          "type": "uint256"
        }
      ],
      "name": "MetadataUpdate",
      "type": "event"
    },
    {
      "anonymous": false,
      "inputs": [
        {
          "indexed": true,
          "internalType": "address",
          "name": "previousOwner",
          "type": "address"
        },
        {
          "indexed": true,
          "internalType": "address",
          "name": "newOwner",
          "type": "address"
        }
      ],
      "name": "OwnershipTransferred",
      "type": "event"
    },
    {
      "anonymous": false,
      "inputs": [
        {
          "indexed": true,
          "internalType": "address",
          "name": "from",
          "type": "address"
        },
        {
          "indexed": true,
          "internalType": "address",
          "name": "to",
          "type": "address"
        },
        {
          "indexed": true,
          "internalType": "uint256",
          "name": "tokenId",
          "type": "uint256"
        }
      ],
      "name": "Transfer",
      "type": "event"
    },
    {
      "inputs": [
        {
          "internalType": "uint256",
          "name": "tokenId",
          "type": "uint256"
        },
        {
          "internalType": "address",
          "name": "chosenBuyer",
          "type": "address"
        }
      ],
      "name": "NFTOwnerStartEscrow",
      "outputs": [],
      "stateMutability": "payable",
      "type": "function"
    },
    {
      "inputs": [],
      "name": "_tokenIdCounter",
      "outputs": [
        {
          "internalType": "uint256",
          "name": "_value",
          "type": "uint256"
        }
      ],
      "stateMutability": "view",
      "type": "function"
    },
    {
      "inputs": [
        {
          "internalType": "address",
          "name": "to",
          "type": "address"
        },
        {
          "internalType": "uint256",
          "name": "tokenId",
          "type": "uint256"
        }
      ],
      "name": "approve",
      "outputs": [],
      "stateMutability": "nonpayable",
      "type": "function"
    },
    {
      "inputs": [
        {
          "internalType": "address",
          "name": "owner",
          "type": "address"
        }
      ],
      "name": "balanceOf",
      "outputs": [
        {
          "internalType": "uint256",
          "name": "",
          "type": "uint256"
        }
      ],
      "stateMutability": "view",
      "type": "function"
    },
    {
      "inputs": [
        {
          "internalType": "address",
          "name": "",
          "type": "address"
        }
      ],
      "name": "buyerAddressToBuyerPayableAddress",
      "outputs": [
        {
          "internalType": "address payable",
          "name": "",
          "type": "address"
        }
      ],
      "stateMutability": "view",
      "type": "function"
    },
    {
      "inputs": [
        {
          "internalType": "address",
          "name": "",
          "type": "address"
        }
      ],
      "name": "buyerAddressToDownPayment",
      "outputs": [
        {
          "internalType": "uint256",
          "name": "",
          "type": "uint256"
        }
      ],
      "stateMutability": "view",
      "type": "function"
    },
    {
      "inputs": [
        {
          "internalType": "uint256",
          "name": "tokenId",
          "type": "uint256"
        }
      ],
      "name": "completePaymentAndEsrow",
      "outputs": [],
      "stateMutability": "payable",
      "type": "function"
    },
    {
      "inputs": [
        {
          "internalType": "uint256",
          "name": "tokenId",
          "type": "uint256"
        },
        {
          "internalType": "uint256",
          "name": "_propertyPrice",
          "type": "uint256"
        },
        {
          "internalType": "uint256",
          "name": "_downPayment",
          "type": "uint256"
        }
      ],
      "name": "createPropertyListing",
      "outputs": [],
      "stateMutability": "nonpayable",
      "type": "function"
    },
    {
      "inputs": [
        {
          "internalType": "uint256",
          "name": "",
          "type": "uint256"
        }
      ],
      "name": "downPayment",
      "outputs": [
        {
          "internalType": "uint256",
          "name": "",
          "type": "uint256"
        }
      ],
      "stateMutability": "view",
      "type": "function"
    },
    {
      "inputs": [
        {
          "internalType": "uint256",
          "name": "tokenId",
          "type": "uint256"
        }
      ],
      "name": "getApproved",
      "outputs": [
        {
          "internalType": "address",
          "name": "",
          "type": "address"
        }
      ],
      "stateMutability": "view",
      "type": "function"
    },
    {
      "inputs": [],
      "name": "getCurrentTokenIdCounter",
      "outputs": [
        {
          "internalType": "uint256",
          "name": "",
          "type": "uint256"
        }
      ],
      "stateMutability": "view",
      "type": "function"
    },
    {
      "inputs": [
        {
          "internalType": "address",
          "name": "owner",
          "type": "address"
        },
        {
          "internalType": "address",
          "name": "operator",
          "type": "address"
        }
      ],
      "name": "isApprovedForAll",
      "outputs": [
        {
          "internalType": "bool",
          "name": "",
          "type": "bool"
        }
      ],
      "stateMutability": "view",
      "type": "function"
    },
    {
      "inputs": [
        {
          "internalType": "string",
          "name": "uri",
          "type": "string"
        }
      ],
      "name": "isContentOwned",
      "outputs": [
        {
          "internalType": "bool",
          "name": "",
          "type": "bool"
        }
      ],
      "stateMutability": "view",
      "type": "function"
    },
    {
      "inputs": [
        {
          "internalType": "uint256",
          "name": "tokenId",
          "type": "uint256"
        },
        {
          "internalType": "address payable",
          "name": "userPayableAddress",
          "type": "address"
        }
      ],
      "name": "makeDownPayment",
      "outputs": [],
      "stateMutability": "payable",
      "type": "function"
    },
    {
      "inputs": [
        {
          "internalType": "address",
          "name": "recipient",
          "type": "address"
        },
        {
          "internalType": "string",
          "name": "ipfsTitleDeedURI",
          "type": "string"
        },
        {
          "internalType": "string",
          "name": "propertyId",
          "type": "string"
        }
      ],
      "name": "mintNFT",
      "outputs": [
        {
          "internalType": "uint256",
          "name": "",
          "type": "uint256"
        }
      ],
      "stateMutability": "nonpayable",
      "type": "function"
    },
    {
      "inputs": [],
      "name": "name",
      "outputs": [
        {
          "internalType": "string",
          "name": "",
          "type": "string"
        }
      ],
      "stateMutability": "view",
      "type": "function"
    },
    {
      "inputs": [],
      "name": "owner",
      "outputs": [
        {
          "internalType": "address",
          "name": "",
          "type": "address"
        }
      ],
      "stateMutability": "view",
      "type": "function"
    },
    {
      "inputs": [
        {
          "internalType": "uint256",
          "name": "tokenId",
          "type": "uint256"
        }
      ],
      "name": "ownerOf",
      "outputs": [
        {
          "internalType": "address",
          "name": "",
          "type": "address"
        }
      ],
      "stateMutability": "view",
      "type": "function"
    },
    {
      "inputs": [
        {
          "internalType": "uint256",
          "name": "",
          "type": "uint256"
        }
      ],
      "name": "propertyPrice",
      "outputs": [
        {
          "internalType": "uint256",
          "name": "",
          "type": "uint256"
        }
      ],
      "stateMutability": "view",
      "type": "function"
    },
    {
      "inputs": [
        {
          "internalType": "uint256",
          "name": "tokenId",
          "type": "uint256"
        },
        {
          "internalType": "address",
          "name": "_buyerAddress",
          "type": "address"
        }
      ],
      "name": "releaseDownPayment",
      "outputs": [],
      "stateMutability": "payable",
      "type": "function"
    },
    {
      "inputs": [],
      "name": "renounceOwnership",
      "outputs": [],
      "stateMutability": "nonpayable",
      "type": "function"
    },
    {
      "inputs": [
        {
          "internalType": "address",
          "name": "from",
          "type": "address"
        },
        {
          "internalType": "address",
          "name": "to",
          "type": "address"
        },
        {
          "internalType": "uint256",
          "name": "tokenId",
          "type": "uint256"
        }
      ],
      "name": "safeTransferFrom",
      "outputs": [],
      "stateMutability": "nonpayable",
      "type": "function"
    },
    {
      "inputs": [
        {
          "internalType": "address",
          "name": "from",
          "type": "address"
        },
        {
          "internalType": "address",
          "name": "to",
          "type": "address"
        },
        {
          "internalType": "uint256",
          "name": "tokenId",
          "type": "uint256"
        },
        {
          "internalType": "bytes",
          "name": "data",
          "type": "bytes"
        }
      ],
      "name": "safeTransferFrom",
      "outputs": [],
      "stateMutability": "nonpayable",
      "type": "function"
    },
    {
      "inputs": [
        {
          "internalType": "address",
          "name": "operator",
          "type": "address"
        },
        {
          "internalType": "bool",
          "name": "approved",
          "type": "bool"
        }
      ],
      "name": "setApprovalForAll",
      "outputs": [],
      "stateMutability": "nonpayable",
      "type": "function"
    },
    {
      "inputs": [
        {
          "internalType": "bytes4",
          "name": "interfaceId",
          "type": "bytes4"
        }
      ],
      "name": "supportsInterface",
      "outputs": [
        {
          "internalType": "bool",
          "name": "",
          "type": "bool"
        }
      ],
      "stateMutability": "view",
      "type": "function"
    },
    {
      "inputs": [],
      "name": "symbol",
      "outputs": [
        {
          "internalType": "string",
          "name": "",
          "type": "string"
        }
      ],
      "stateMutability": "view",
      "type": "function"
    },
    {
      "inputs": [
        {
          "internalType": "uint256",
          "name": "",
          "type": "uint256"
        },
        {
          "internalType": "uint256",
          "name": "",
          "type": "uint256"
        }
      ],
      "name": "tokenIdToBuyerAddress",
      "outputs": [
        {
          "internalType": "address",
          "name": "",
          "type": "address"
        }
      ],
      "stateMutability": "view",
      "type": "function"
    },
    {
      "inputs": [
        {
          "internalType": "uint256",
          "name": "",
          "type": "uint256"
        }
      ],
      "name": "tokenIdToSellerPayableAddress",
      "outputs": [
        {
          "internalType": "address payable",
          "name": "",
          "type": "address"
        }
      ],
      "stateMutability": "view",
      "type": "function"
    },
    {
      "inputs": [
        {
          "internalType": "uint256",
          "name": "tokenId",
          "type": "uint256"
        }
      ],
      "name": "tokenURI",
      "outputs": [
        {
          "internalType": "string",
          "name": "",
          "type": "string"
        }
      ],
      "stateMutability": "view",
      "type": "function"
    },
    {
      "inputs": [
        {
          "internalType": "address",
          "name": "from",
          "type": "address"
        },
        {
          "internalType": "address",
          "name": "to",
          "type": "address"
        },
        {
          "internalType": "uint256",
          "name": "tokenId",
          "type": "uint256"
        }
      ],
      "name": "transfer",
      "outputs": [],
      "stateMutability": "nonpayable",
      "type": "function"
    },
    {
      "inputs": [
        {
          "internalType": "address",
          "name": "from",
          "type": "address"
        },
        {
          "internalType": "address",
          "name": "to",
          "type": "address"
        },
        {
          "internalType": "uint256",
          "name": "tokenId",
          "type": "uint256"
        }
      ],
      "name": "transferFrom",
      "outputs": [],
      "stateMutability": "nonpayable",
      "type": "function"
    },
    {
      "inputs": [
        {
          "internalType": "address",
          "name": "newOwner",
          "type": "address"
        }
      ],
      "name": "transferOwnership",
      "outputs": [],
      "stateMutability": "nonpayable",
      "type": "function"
    }
  ],
  "bytecode": "0x60806040523480156200001157600080fd5b506040518060400160405280600c81526020017f5468726565427269636b733100000000000000000000000000000000000000008152506040518060400160405280600481526020017f544252530000000000000000000000000000000000000000000000000000000081525081600090816200008f919062000412565b508060019081620000a1919062000412565b505050620000c4620000b8620000ca60201b60201c565b620000d260201b60201c565b620004f9565b600033905090565b6000600760009054906101000a900473ffffffffffffffffffffffffffffffffffffffff16905081600760006101000a81548173ffffffffffffffffffffffffffffffffffffffff021916908373ffffffffffffffffffffffffffffffffffffffff1602179055508173ffffffffffffffffffffffffffffffffffffffff168173ffffffffffffffffffffffffffffffffffffffff167f8be0079c531659141344cd1fd0a4f28419497f9722a3daafe3b4186f6b6457e060405160405180910390a35050565b600081519050919050565b7f4e487b7100000000000000000000000000000000000000000000000000000000600052604160045260246000fd5b7f4e487b7100000000000000000000000000000000000000000000000000000000600052602260045260246000fd5b600060028204905060018216806200021a57607f821691505b60208210810362000230576200022f620001d2565b5b50919050565b60008190508160005260206000209050919050565b60006020601f8301049050919050565b600082821b905092915050565b6000600883026200029a7fffffffffffffffffffffffffffffffffffffffffffffffffffffffffffffffff826200025b565b620002a686836200025b565b95508019841693508086168417925050509392505050565b6000819050919050565b6000819050919050565b6000620002f3620002ed620002e784620002be565b620002c8565b620002be565b9050919050565b6000819050919050565b6200030f83620002d2565b620003276200031e82620002fa565b84845462000268565b825550505050565b600090565b6200033e6200032f565b6200034b81848462000304565b505050565b5b8181101562000373576200036760008262000334565b60018101905062000351565b5050565b601f821115620003c2576200038c8162000236565b62000397846200024b565b81016020851015620003a7578190505b620003bf620003b6856200024b565b83018262000350565b50505b505050565b600082821c905092915050565b6000620003e760001984600802620003c7565b1980831691505092915050565b6000620004028383620003d4565b9150826002028217905092915050565b6200041d8262000198565b67ffffffffffffffff811115620004395762000438620001a3565b5b62000445825462000201565b6200045282828562000377565b600060209050601f8311600181146200048a576000841562000475578287015190505b620004818582620003f4565b865550620004f1565b601f1984166200049a8662000236565b60005b82811015620004c4578489015182556001820191506020850194506020810190506200049d565b86831015620004e45784890151620004e0601f891682620003d4565b8355505b6001600288020188555050505b505050505050565b61424280620005096000396000f3fe6080604052600436106101e35760003560e01c80638da5cb5b11610102578063b88d4fde11610095578063c87b56dd11610064578063c87b56dd14610725578063e985e9c514610762578063f2fde38b1461079f578063f3020d83146107c8576101e3565b8063b88d4fde1461066d578063bd1157a914610696578063beabacc8146106d3578063c12e1a07146106fc576101e3565b8063a22cb465116100d1578063a22cb465146105cf578063a3ee38ae146105f8578063a983fa4914610635578063b364cf7d14610651576101e3565b80638da5cb5b146104ff578063914e58f51461052a57806395d89b41146105675780639f1cabc614610592576101e3565b806342842e0e1161017a578063715018a611610149578063715018a614610455578063747f9b4f1461046c57806384c4bd4b146104a95780638c6743e0146104d4576101e3565b806342842e0e146103755780634412e4391461039e5780636352211e146103db57806370a0823114610418576101e3565b806309f5c475116101b657806309f5c475146102b657806314050c5a146102d257806323b872dd1461030f5780633a28551e14610338576101e3565b806301ffc9a7146101e857806306fdde0314610225578063081812fc14610250578063095ea7b31461028d575b600080fd5b3480156101f457600080fd5b5061020f600480360381019061020a9190612a6d565b6107e4565b60405161021c9190612ab5565b60405180910390f35b34801561023157600080fd5b5061023a610806565b6040516102479190612b60565b60405180910390f35b34801561025c57600080fd5b5061027760048036038101906102729190612bb8565b610898565b6040516102849190612c26565b60405180910390f35b34801561029957600080fd5b506102b460048036038101906102af9190612c6d565b6108de565b005b6102d060048036038101906102cb9190612bb8565b6109f5565b005b3480156102de57600080fd5b506102f960048036038101906102f49190612bb8565b610a9c565b6040516103069190612cbc565b60405180910390f35b34801561031b57600080fd5b5061033660048036038101906103319190612cd7565b610ab4565b005b34801561034457600080fd5b5061035f600480360381019061035a9190612d2a565b610b14565b60405161036c9190612d78565b60405180910390f35b34801561038157600080fd5b5061039c60048036038101906103979190612cd7565b610b47565b005b3480156103aa57600080fd5b506103c560048036038101906103c09190612d2a565b610c7e565b6040516103d29190612cbc565b60405180910390f35b3480156103e757600080fd5b5061040260048036038101906103fd9190612bb8565b610c96565b60405161040f9190612c26565b60405180910390f35b34801561042457600080fd5b5061043f600480360381019061043a9190612d2a565b610d1c565b60405161044c9190612cbc565b60405180910390f35b34801561046157600080fd5b5061046a610dd3565b005b34801561047857600080fd5b50610493600480360381019061048e9190612bb8565b610de7565b6040516104a09190612cbc565b60405180910390f35b3480156104b557600080fd5b506104be610dff565b6040516104cb9190612cbc565b60405180910390f35b3480156104e057600080fd5b506104e9610e0b565b6040516104f69190612cbc565b60405180910390f35b34801561050b57600080fd5b50610514610e21565b6040516105219190612c26565b60405180910390f35b34801561053657600080fd5b50610551600480360381019061054c9190612bb8565b610e4b565b60405161055e9190612d78565b60405180910390f35b34801561057357600080fd5b5061057c610e7e565b6040516105899190612b60565b60405180910390f35b34801561059e57600080fd5b506105b960048036038101906105b49190612ec8565b610f10565b6040516105c69190612ab5565b60405180910390f35b3480156105db57600080fd5b506105f660048036038101906105f19190612f3d565b610f4b565b005b34801561060457600080fd5b5061061f600480360381019061061a9190612f7d565b610f61565b60405161062c9190612cbc565b60405180910390f35b61064f600480360381019061064a9190613034565b611067565b005b61066b60048036038101906106669190613074565b611186565b005b34801561067957600080fd5b50610694600480360381019061068f9190613155565b6113c8565b005b3480156106a257600080fd5b506106bd60048036038101906106b891906131d8565b61142a565b6040516106ca9190612c26565b60405180910390f35b3480156106df57600080fd5b506106fa60048036038101906106f59190612cd7565b611478565b005b34801561070857600080fd5b50610723600480360381019061071e9190613218565b611488565b005b34801561073157600080fd5b5061074c60048036038101906107479190612bb8565b61158a565b6040516107599190612b60565b60405180910390f35b34801561076e57600080fd5b506107896004803603810190610784919061326b565b61159c565b6040516107969190612ab5565b60405180910390f35b3480156107ab57600080fd5b506107c660048036038101906107c19190612d2a565b611630565b005b6107e260048036038101906107dd9190613074565b6116b3565b005b60006107ef826116b7565b806107ff57506107fe82611799565b5b9050919050565b606060008054610815906132da565b80601f0160208091040260200160405190810160405280929190818152602001828054610841906132da565b801561088e5780601f106108635761010080835404028352916020019161088e565b820191906000526020600020905b81548152906001019060200180831161087157829003601f168201915b5050505050905090565b60006108a3826117fa565b6004600083815260200190815260200160002060009054906101000a900473ffffffffffffffffffffffffffffffffffffffff169050919050565b60006108e982610c96565b90508073ffffffffffffffffffffffffffffffffffffffff168373ffffffffffffffffffffffffffffffffffffffff1603610959576040517f08c379a00000000000000000000000000000000000000000000000000000000081526004016109509061337d565b60405180910390fd5b8073ffffffffffffffffffffffffffffffffffffffff16610978611845565b73ffffffffffffffffffffffffffffffffffffffff1614806109a757506109a6816109a1611845565b61159c565b5b6109e6576040517f08c379a00000000000000000000000000000000000000000000000000000000081526004016109dd9061340f565b60405180910390fd5b6109f0838361184d565b505050565b610a00303383611478565b60006010600083815260200190815260200160002060009054906101000a900473ffffffffffffffffffffffffffffffffffffffff1690506000600b60008481526020019081526020016000205490508173ffffffffffffffffffffffffffffffffffffffff166108fc829081150290604051600060405180830381858888f19350505050158015610a96573d6000803e3d6000fd5b50505050565b600b6020528060005260406000206000915090505481565b610ac5610abf611845565b82611906565b610b04576040517f08c379a0000000000000000000000000000000000000000000000000000000008152600401610afb906134a1565b60405180910390fd5b610b0f83838361199b565b505050565b600f6020528060005260406000206000915054906101000a900473ffffffffffffffffffffffffffffffffffffffff1681565b600073ffffffffffffffffffffffffffffffffffffffff168373ffffffffffffffffffffffffffffffffffffffff1603610bb6576040517f08c379a0000000000000000000000000000000000000000000000000000000008152600401610bad9061350d565b60405180910390fd5b600073ffffffffffffffffffffffffffffffffffffffff168273ffffffffffffffffffffffffffffffffffffffff1603610c25576040517f08c379a0000000000000000000000000000000000000000000000000000000008152600401610c1c90613579565b60405180910390fd5b610c2f8382611906565b610c6e576040517f08c379a0000000000000000000000000000000000000000000000000000000008152600401610c65906135e5565b60405180910390fd5b610c7983838361199b565b505050565b600e6020528060005260406000206000915090505481565b600080610ca283611c94565b9050600073ffffffffffffffffffffffffffffffffffffffff168173ffffffffffffffffffffffffffffffffffffffff1603610d13576040517f08c379a0000000000000000000000000000000000000000000000000000000008152600401610d0a90613651565b60405180910390fd5b80915050919050565b60008073ffffffffffffffffffffffffffffffffffffffff168273ffffffffffffffffffffffffffffffffffffffff1603610d8c576040517f08c379a0000000000000000000000000000000000000000000000000000000008152600401610d83906136e3565b60405180910390fd5b600360008373ffffffffffffffffffffffffffffffffffffffff1673ffffffffffffffffffffffffffffffffffffffff168152602001908152602001600020549050919050565b610ddb611cd1565b610de56000611d4f565b565b600c6020528060005260406000206000915090505481565b60088060000154905081565b600080610e186008611e15565b90508091505090565b6000600760009054906101000a900473ffffffffffffffffffffffffffffffffffffffff16905090565b60106020528060005260406000206000915054906101000a900473ffffffffffffffffffffffffffffffffffffffff1681565b606060018054610e8d906132da565b80601f0160208091040260200160405190810160405280929190818152602001828054610eb9906132da565b8015610f065780601f10610edb57610100808354040283529160200191610f06565b820191906000526020600020905b815481529060010190602001808311610ee957829003601f168201915b5050505050905090565b60006001600983604051610f24919061373f565b908152602001604051809103902060009054906101000a900460ff1660ff16149050919050565b610f5d610f56611845565b8383611e23565b5050565b6000610f6b611cd1565b610f7483610f10565b15610fb4576040517f08c379a0000000000000000000000000000000000000000000000000000000008152600401610fab906137a2565b60405180910390fd5b6000610fbe610e0b565b9050610fca6008611f8f565b6001600985604051610fdc919061373f565b908152602001604051809103902060006101000a81548160ff021916908360ff160217905550604051806020016040528084815250600a85604051611021919061373f565b908152602001604051809103902090600161103d9291906128d5565b506110488582611fa5565b61105281856121c2565b61105c338261184d565b809150509392505050565b80600f60003373ffffffffffffffffffffffffffffffffffffffff1673ffffffffffffffffffffffffffffffffffffffff16815260200190815260200160002060006101000a81548173ffffffffffffffffffffffffffffffffffffffff021916908373ffffffffffffffffffffffffffffffffffffffff1602179055506000600d6000848152602001908152602001600020905080829080600181540180825580915050600190039060005260206000200160009091909190916101000a81548173ffffffffffffffffffffffffffffffffffffffff021916908373ffffffffffffffffffffffffffffffffffffffff16021790555080600d600085815260200190815260200160002090805461118092919061292e565b50505050565b6111903383611906565b6111cf576040517f08c379a00000000000000000000000000000000000000000000000000000000081526004016111c690613834565b60405180910390fd5b6111da333084611478565b6000600d600084815260200190815260200160002080548060200260200160405190810160405280929190818152602001828054801561126f57602002820191906000526020600020905b8160009054906101000a900473ffffffffffffffffffffffffffffffffffffffff1673ffffffffffffffffffffffffffffffffffffffff1681526020019060010190808311611225575b5050505050905060005b81518110156113c2578273ffffffffffffffffffffffffffffffffffffffff168282815181106112ac576112ab613854565b5b602002602001015173ffffffffffffffffffffffffffffffffffffffff16146113af576000600f60008484815181106112e8576112e7613854565b5b602002602001015173ffffffffffffffffffffffffffffffffffffffff1673ffffffffffffffffffffffffffffffffffffffff16815260200190815260200160002060009054906101000a900473ffffffffffffffffffffffffffffffffffffffff1690506000600c60008781526020019081526020016000205490508173ffffffffffffffffffffffffffffffffffffffff166108fc829081150290604051600060405180830381858888f193505050501580156113ab573d6000803e3d6000fd5b5050505b80806113ba906138b2565b915050611279565b50505050565b6113d96113d3611845565b83611906565b611418576040517f08c379a000000000000000000000000000000000000000000000000000000000815260040161140f906134a1565b60405180910390fd5b61142484848484612266565b50505050565b600d602052816000526040600020818154811061144657600080fd5b906000526020600020016000915091509054906101000a900473ffffffffffffffffffffffffffffffffffffffff1681565b611483838383610b47565b505050565b6114923384611906565b6114d1576040517f08c379a00000000000000000000000000000000000000000000000000000000081526004016114c89061396c565b60405180910390fd5b670de0b6b3a7640000826114e5919061398c565b600b600085815260200190815260200160002081905550670de0b6b3a764000081611510919061398c565b600c60008581526020019081526020016000208190555060003390506000819050806010600087815260200190815260200160002060006101000a81548173ffffffffffffffffffffffffffffffffffffffff021916908373ffffffffffffffffffffffffffffffffffffffff1602179055505050505050565b6060611595826122c2565b9050919050565b6000600560008473ffffffffffffffffffffffffffffffffffffffff1673ffffffffffffffffffffffffffffffffffffffff16815260200190815260200160002060008373ffffffffffffffffffffffffffffffffffffffff1673ffffffffffffffffffffffffffffffffffffffff16815260200190815260200160002060009054906101000a900460ff16905092915050565b611638611cd1565b600073ffffffffffffffffffffffffffffffffffffffff168173ffffffffffffffffffffffffffffffffffffffff16036116a7576040517f08c379a000000000000000000000000000000000000000000000000000000000815260040161169e90613a40565b60405180910390fd5b6116b081611d4f565b50565b5050565b60007f80ac58cd000000000000000000000000000000000000000000000000000000007bffffffffffffffffffffffffffffffffffffffffffffffffffffffff1916827bffffffffffffffffffffffffffffffffffffffffffffffffffffffff1916148061178257507f5b5e139f000000000000000000000000000000000000000000000000000000007bffffffffffffffffffffffffffffffffffffffffffffffffffffffff1916827bffffffffffffffffffffffffffffffffffffffffffffffffffffffff1916145b806117925750611791826123d4565b5b9050919050565b6000634906490660e01b7bffffffffffffffffffffffffffffffffffffffffffffffffffffffff1916827bffffffffffffffffffffffffffffffffffffffffffffffffffffffff191614806117f357506117f2826116b7565b5b9050919050565b6118038161243e565b611842576040517f08c379a000000000000000000000000000000000000000000000000000000000815260040161183990613651565b60405180910390fd5b50565b600033905090565b816004600083815260200190815260200160002060006101000a81548173ffffffffffffffffffffffffffffffffffffffff021916908373ffffffffffffffffffffffffffffffffffffffff160217905550808273ffffffffffffffffffffffffffffffffffffffff166118c083610c96565b73ffffffffffffffffffffffffffffffffffffffff167f8c5be1e5ebec7d5bd14f71427d1e84f3dd0314c0f7b2291e5b200ac8c7c3b92560405160405180910390a45050565b60008061191283610c96565b90508073ffffffffffffffffffffffffffffffffffffffff168473ffffffffffffffffffffffffffffffffffffffff1614806119545750611953818561159c565b5b8061199257508373ffffffffffffffffffffffffffffffffffffffff1661197a84610898565b73ffffffffffffffffffffffffffffffffffffffff16145b91505092915050565b8273ffffffffffffffffffffffffffffffffffffffff166119bb82610c96565b73ffffffffffffffffffffffffffffffffffffffff1614611a11576040517f08c379a0000000000000000000000000000000000000000000000000000000008152600401611a0890613ad2565b60405180910390fd5b600073ffffffffffffffffffffffffffffffffffffffff168273ffffffffffffffffffffffffffffffffffffffff1603611a80576040517f08c379a0000000000000000000000000000000000000000000000000000000008152600401611a7790613b64565b60405180910390fd5b611a8d838383600161247f565b8273ffffffffffffffffffffffffffffffffffffffff16611aad82610c96565b73ffffffffffffffffffffffffffffffffffffffff1614611b03576040517f08c379a0000000000000000000000000000000000000000000000000000000008152600401611afa90613ad2565b60405180910390fd5b6004600082815260200190815260200160002060006101000a81549073ffffffffffffffffffffffffffffffffffffffff02191690556001600360008573ffffffffffffffffffffffffffffffffffffffff1673ffffffffffffffffffffffffffffffffffffffff168152602001908152602001600020600082825403925050819055506001600360008473ffffffffffffffffffffffffffffffffffffffff1673ffffffffffffffffffffffffffffffffffffffff16815260200190815260200160002060008282540192505081905550816002600083815260200190815260200160002060006101000a81548173ffffffffffffffffffffffffffffffffffffffff021916908373ffffffffffffffffffffffffffffffffffffffff160217905550808273ffffffffffffffffffffffffffffffffffffffff168473ffffffffffffffffffffffffffffffffffffffff167fddf252ad1be2c89b69c2b068fc378daa952ba7f163c4a11628f55a4df523b3ef60405160405180910390a4611c8f8383836001612485565b505050565b60006002600083815260200190815260200160002060009054906101000a900473ffffffffffffffffffffffffffffffffffffffff169050919050565b611cd9611845565b73ffffffffffffffffffffffffffffffffffffffff16611cf7610e21565b73ffffffffffffffffffffffffffffffffffffffff1614611d4d576040517f08c379a0000000000000000000000000000000000000000000000000000000008152600401611d4490613bd0565b60405180910390fd5b565b6000600760009054906101000a900473ffffffffffffffffffffffffffffffffffffffff16905081600760006101000a81548173ffffffffffffffffffffffffffffffffffffffff021916908373ffffffffffffffffffffffffffffffffffffffff1602179055508173ffffffffffffffffffffffffffffffffffffffff168173ffffffffffffffffffffffffffffffffffffffff167f8be0079c531659141344cd1fd0a4f28419497f9722a3daafe3b4186f6b6457e060405160405180910390a35050565b600081600001549050919050565b8173ffffffffffffffffffffffffffffffffffffffff168373ffffffffffffffffffffffffffffffffffffffff1603611e91576040517f08c379a0000000000000000000000000000000000000000000000000000000008152600401611e8890613c3c565b60405180910390fd5b80600560008573ffffffffffffffffffffffffffffffffffffffff1673ffffffffffffffffffffffffffffffffffffffff16815260200190815260200160002060008473ffffffffffffffffffffffffffffffffffffffff1673ffffffffffffffffffffffffffffffffffffffff16815260200190815260200160002060006101000a81548160ff0219169083151502179055508173ffffffffffffffffffffffffffffffffffffffff168373ffffffffffffffffffffffffffffffffffffffff167f17307eab39ab6107e8899845ad3d59bd9653f200f220920489ca2b5937696c3183604051611f829190612ab5565b60405180910390a3505050565b6001816000016000828254019250508190555050565b600073ffffffffffffffffffffffffffffffffffffffff168273ffffffffffffffffffffffffffffffffffffffff1603612014576040517f08c379a000000000000000000000000000000000000000000000000000000000815260040161200b90613ca8565b60405180910390fd5b61201d8161243e565b1561205d576040517f08c379a000000000000000000000000000000000000000000000000000000000815260040161205490613d14565b60405180910390fd5b61206b60008383600161247f565b6120748161243e565b156120b4576040517f08c379a00000000000000000000000000000000000000000000000000000000081526004016120ab90613d14565b60405180910390fd5b6001600360008473ffffffffffffffffffffffffffffffffffffffff1673ffffffffffffffffffffffffffffffffffffffff16815260200190815260200160002060008282540192505081905550816002600083815260200190815260200160002060006101000a81548173ffffffffffffffffffffffffffffffffffffffff021916908373ffffffffffffffffffffffffffffffffffffffff160217905550808273ffffffffffffffffffffffffffffffffffffffff16600073ffffffffffffffffffffffffffffffffffffffff167fddf252ad1be2c89b69c2b068fc378daa952ba7f163c4a11628f55a4df523b3ef60405160405180910390a46121be600083836001612485565b5050565b6121cb8261243e565b61220a576040517f08c379a000000000000000000000000000000000000000000000000000000000815260040161220190613da6565b60405180910390fd5b8060066000848152602001908152602001600020908161222a9190613f72565b507ff8e1a15aba9398e019f0b49df1a4fde98ee17ae345cb5f6b5e2c27f5033e8ce78260405161225a9190612cbc565b60405180910390a15050565b61227184848461199b565b61227d8484848461248b565b6122bc576040517f08c379a00000000000000000000000000000000000000000000000000000000081526004016122b3906140b6565b60405180910390fd5b50505050565b60606122cd826117fa565b60006006600084815260200190815260200160002080546122ed906132da565b80601f0160208091040260200160405190810160405280929190818152602001828054612319906132da565b80156123665780601f1061233b57610100808354040283529160200191612366565b820191906000526020600020905b81548152906001019060200180831161234957829003601f168201915b505050505090506000612377612612565b9050600081510361238c5781925050506123cf565b6000825111156123c15780826040516020016123a99291906140d6565b604051602081830303815290604052925050506123cf565b6123ca84612629565b925050505b919050565b60007f01ffc9a7000000000000000000000000000000000000000000000000000000007bffffffffffffffffffffffffffffffffffffffffffffffffffffffff1916827bffffffffffffffffffffffffffffffffffffffffffffffffffffffff1916149050919050565b60008073ffffffffffffffffffffffffffffffffffffffff1661246083611c94565b73ffffffffffffffffffffffffffffffffffffffff1614159050919050565b50505050565b50505050565b60006124ac8473ffffffffffffffffffffffffffffffffffffffff16612691565b15612605578373ffffffffffffffffffffffffffffffffffffffff1663150b7a026124d5611845565b8786866040518563ffffffff1660e01b81526004016124f7949392919061414f565b6020604051808303816000875af192505050801561253357506040513d601f19601f8201168201806040525081019061253091906141b0565b60015b6125b5573d8060008114612563576040519150601f19603f3d011682016040523d82523d6000602084013e612568565b606091505b5060008151036125ad576040517f08c379a00000000000000000000000000000000000000000000000000000000081526004016125a4906140b6565b60405180910390fd5b805181602001fd5b63150b7a0260e01b7bffffffffffffffffffffffffffffffffffffffffffffffffffffffff1916817bffffffffffffffffffffffffffffffffffffffffffffffffffffffff19161491505061260a565b600190505b949350505050565b606060405180602001604052806000815250905090565b6060612634826117fa565b600061263e612612565b9050600081511161265e5760405180602001604052806000815250612689565b80612668846126b4565b6040516020016126799291906140d6565b6040516020818303038152906040525b915050919050565b6000808273ffffffffffffffffffffffffffffffffffffffff163b119050919050565b6060600060016126c384612782565b01905060008167ffffffffffffffff8111156126e2576126e1612d9d565b5b6040519080825280601f01601f1916602001820160405280156127145781602001600182028036833780820191505090505b509050600082602001820190505b600115612777578080600190039150507f3031323334353637383961626364656600000000000000000000000000000000600a86061a8153600a858161276b5761276a6141dd565b5b04945060008503612722575b819350505050919050565b600080600090507a184f03e93ff9f4daa797ed6e38ed64bf6a1f01000000000000000083106127e0577a184f03e93ff9f4daa797ed6e38ed64bf6a1f01000000000000000083816127d6576127d56141dd565b5b0492506040810190505b6d04ee2d6d415b85acef8100000000831061281d576d04ee2d6d415b85acef81000000008381612813576128126141dd565b5b0492506020810190505b662386f26fc10000831061284c57662386f26fc100008381612842576128416141dd565b5b0492506010810190505b6305f5e1008310612875576305f5e100838161286b5761286a6141dd565b5b0492506008810190505b612710831061289a5761271083816128905761288f6141dd565b5b0492506004810190505b606483106128bd57606483816128b3576128b26141dd565b5b0492506002810190505b600a83106128cc576001810190505b80915050919050565b82805482825590600052602060002090810192821561291d579160200282015b8281111561291c57825182908161290c9190613f72565b50916020019190600101906128f5565b5b50905061292a9190612980565b5090565b82805482825590600052602060002090810192821561296f5760005260206000209182015b8281111561296e578254825591600101919060010190612953565b5b50905061297c91906129a4565b5090565b5b808211156129a0576000818161299791906129c1565b50600101612981565b5090565b5b808211156129bd5760008160009055506001016129a5565b5090565b5080546129cd906132da565b6000825580601f106129df57506129fe565b601f0160209004906000526020600020908101906129fd91906129a4565b5b50565b6000604051905090565b600080fd5b600080fd5b60007fffffffff0000000000000000000000000000000000000000000000000000000082169050919050565b612a4a81612a15565b8114612a5557600080fd5b50565b600081359050612a6781612a41565b92915050565b600060208284031215612a8357612a82612a0b565b5b6000612a9184828501612a58565b91505092915050565b60008115159050919050565b612aaf81612a9a565b82525050565b6000602082019050612aca6000830184612aa6565b92915050565b600081519050919050565b600082825260208201905092915050565b60005b83811015612b0a578082015181840152602081019050612aef565b60008484015250505050565b6000601f19601f8301169050919050565b6000612b3282612ad0565b612b3c8185612adb565b9350612b4c818560208601612aec565b612b5581612b16565b840191505092915050565b60006020820190508181036000830152612b7a8184612b27565b905092915050565b6000819050919050565b612b9581612b82565b8114612ba057600080fd5b50565b600081359050612bb281612b8c565b92915050565b600060208284031215612bce57612bcd612a0b565b5b6000612bdc84828501612ba3565b91505092915050565b600073ffffffffffffffffffffffffffffffffffffffff82169050919050565b6000612c1082612be5565b9050919050565b612c2081612c05565b82525050565b6000602082019050612c3b6000830184612c17565b92915050565b612c4a81612c05565b8114612c5557600080fd5b50565b600081359050612c6781612c41565b92915050565b60008060408385031215612c8457612c83612a0b565b5b6000612c9285828601612c58565b9250506020612ca385828601612ba3565b9150509250929050565b612cb681612b82565b82525050565b6000602082019050612cd16000830184612cad565b92915050565b600080600060608486031215612cf057612cef612a0b565b5b6000612cfe86828701612c58565b9350506020612d0f86828701612c58565b9250506040612d2086828701612ba3565b9150509250925092565b600060208284031215612d4057612d3f612a0b565b5b6000612d4e84828501612c58565b91505092915050565b6000612d6282612be5565b9050919050565b612d7281612d57565b82525050565b6000602082019050612d8d6000830184612d69565b92915050565b600080fd5b600080fd5b7f4e487b7100000000000000000000000000000000000000000000000000000000600052604160045260246000fd5b612dd582612b16565b810181811067ffffffffffffffff82111715612df457612df3612d9d565b5b80604052505050565b6000612e07612a01565b9050612e138282612dcc565b919050565b600067ffffffffffffffff821115612e3357612e32612d9d565b5b612e3c82612b16565b9050602081019050919050565b82818337600083830152505050565b6000612e6b612e6684612e18565b612dfd565b905082815260208101848484011115612e8757612e86612d98565b5b612e92848285612e49565b509392505050565b600082601f830112612eaf57612eae612d93565b5b8135612ebf848260208601612e58565b91505092915050565b600060208284031215612ede57612edd612a0b565b5b600082013567ffffffffffffffff811115612efc57612efb612a10565b5b612f0884828501612e9a565b91505092915050565b612f1a81612a9a565b8114612f2557600080fd5b50565b600081359050612f3781612f11565b92915050565b60008060408385031215612f5457612f53612a0b565b5b6000612f6285828601612c58565b9250506020612f7385828601612f28565b9150509250929050565b600080600060608486031215612f9657612f95612a0b565b5b6000612fa486828701612c58565b935050602084013567ffffffffffffffff811115612fc557612fc4612a10565b5b612fd186828701612e9a565b925050604084013567ffffffffffffffff811115612ff257612ff1612a10565b5b612ffe86828701612e9a565b9150509250925092565b61301181612d57565b811461301c57600080fd5b50565b60008135905061302e81613008565b92915050565b6000806040838503121561304b5761304a612a0b565b5b600061305985828601612ba3565b925050602061306a8582860161301f565b9150509250929050565b6000806040838503121561308b5761308a612a0b565b5b600061309985828601612ba3565b92505060206130aa85828601612c58565b9150509250929050565b600067ffffffffffffffff8211156130cf576130ce612d9d565b5b6130d882612b16565b9050602081019050919050565b60006130f86130f3846130b4565b612dfd565b90508281526020810184848401111561311457613113612d98565b5b61311f848285612e49565b509392505050565b600082601f83011261313c5761313b612d93565b5b813561314c8482602086016130e5565b91505092915050565b6000806000806080858703121561316f5761316e612a0b565b5b600061317d87828801612c58565b945050602061318e87828801612c58565b935050604061319f87828801612ba3565b925050606085013567ffffffffffffffff8111156131c0576131bf612a10565b5b6131cc87828801613127565b91505092959194509250565b600080604083850312156131ef576131ee612a0b565b5b60006131fd85828601612ba3565b925050602061320e85828601612ba3565b9150509250929050565b60008060006060848603121561323157613230612a0b565b5b600061323f86828701612ba3565b935050602061325086828701612ba3565b925050604061326186828701612ba3565b9150509250925092565b6000806040838503121561328257613281612a0b565b5b600061329085828601612c58565b92505060206132a185828601612c58565b9150509250929050565b7f4e487b7100000000000000000000000000000000000000000000000000000000600052602260045260246000fd5b600060028204905060018216806132f257607f821691505b602082108103613305576133046132ab565b5b50919050565b7f4552433732313a20617070726f76616c20746f2063757272656e74206f776e6560008201527f7200000000000000000000000000000000000000000000000000000000000000602082015250565b6000613367602183612adb565b91506133728261330b565b604082019050919050565b600060208201905081810360008301526133968161335a565b9050919050565b7f4552433732313a20617070726f76652063616c6c6572206973206e6f7420746f60008201527f6b656e206f776e6572206f7220617070726f76656420666f7220616c6c000000602082015250565b60006133f9603d83612adb565b91506134048261339d565b604082019050919050565b60006020820190508181036000830152613428816133ec565b9050919050565b7f4552433732313a2063616c6c6572206973206e6f7420746f6b656e206f776e6560008201527f72206f7220617070726f76656400000000000000000000000000000000000000602082015250565b600061348b602d83612adb565b91506134968261342f565b604082019050919050565b600060208201905081810360008301526134ba8161347e565b9050919050565b7f46726f6d2061646472657373206973206e6f742076616c696400000000000000600082015250565b60006134f7601983612adb565b9150613502826134c1565b602082019050919050565b60006020820190508181036000830152613526816134ea565b9050919050565b7f546f2061646472657373206973206e6f742076616c6964000000000000000000600082015250565b6000613563601783612adb565b915061356e8261352d565b602082019050919050565b6000602082019050818103600083015261359281613556565b9050919050565b7f5472616e73666572206e6f74207065726d697474656400000000000000000000600082015250565b60006135cf601683612adb565b91506135da82613599565b602082019050919050565b600060208201905081810360008301526135fe816135c2565b9050919050565b7f4552433732313a20696e76616c696420746f6b656e2049440000000000000000600082015250565b600061363b601883612adb565b915061364682613605565b602082019050919050565b6000602082019050818103600083015261366a8161362e565b9050919050565b7f4552433732313a2061646472657373207a65726f206973206e6f74206120766160008201527f6c6964206f776e65720000000000000000000000000000000000000000000000602082015250565b60006136cd602983612adb565b91506136d882613671565b604082019050919050565b600060208201905081810360008301526136fc816136c0565b9050919050565b600081905092915050565b600061371982612ad0565b6137238185613703565b9350613733818560208601612aec565b80840191505092915050565b600061374b828461370e565b915081905092915050565b7f4e465420616c7265616479206d696e7465640000000000000000000000000000600082015250565b600061378c601283612adb565b915061379782613756565b602082019050919050565b600060208201905081810360008301526137bb8161377f565b9050919050565b7f6f6e6c79206f776e6572206f66204e46542063616e207374617274206573637260008201527f6f772070726f6365737300000000000000000000000000000000000000000000602082015250565b600061381e602a83612adb565b9150613829826137c2565b604082019050919050565b6000602082019050818103600083015261384d81613811565b9050919050565b7f4e487b7100000000000000000000000000000000000000000000000000000000600052603260045260246000fd5b7f4e487b7100000000000000000000000000000000000000000000000000000000600052601160045260246000fd5b60006138bd82612b82565b91507fffffffffffffffffffffffffffffffffffffffffffffffffffffffffffffffff82036138ef576138ee613883565b5b600182019050919050565b7f6f6e6c79206f776e6572206f66204e46542063616e20637265617465206c697360008201527f74696e6700000000000000000000000000000000000000000000000000000000602082015250565b6000613956602483612adb565b9150613961826138fa565b604082019050919050565b6000602082019050818103600083015261398581613949565b9050919050565b600061399782612b82565b91506139a283612b82565b92508282026139b081612b82565b915082820484148315176139c7576139c6613883565b5b5092915050565b7f4f776e61626c653a206e6577206f776e657220697320746865207a65726f206160008201527f6464726573730000000000000000000000000000000000000000000000000000602082015250565b6000613a2a602683612adb565b9150613a35826139ce565b604082019050919050565b60006020820190508181036000830152613a5981613a1d565b9050919050565b7f4552433732313a207472616e736665722066726f6d20696e636f72726563742060008201527f6f776e6572000000000000000000000000000000000000000000000000000000602082015250565b6000613abc602583612adb565b9150613ac782613a60565b604082019050919050565b60006020820190508181036000830152613aeb81613aaf565b9050919050565b7f4552433732313a207472616e7366657220746f20746865207a65726f2061646460008201527f7265737300000000000000000000000000000000000000000000000000000000602082015250565b6000613b4e602483612adb565b9150613b5982613af2565b604082019050919050565b60006020820190508181036000830152613b7d81613b41565b9050919050565b7f4f776e61626c653a2063616c6c6572206973206e6f7420746865206f776e6572600082015250565b6000613bba602083612adb565b9150613bc582613b84565b602082019050919050565b60006020820190508181036000830152613be981613bad565b9050919050565b7f4552433732313a20617070726f766520746f2063616c6c657200000000000000600082015250565b6000613c26601983612adb565b9150613c3182613bf0565b602082019050919050565b60006020820190508181036000830152613c5581613c19565b9050919050565b7f4552433732313a206d696e7420746f20746865207a65726f2061646472657373600082015250565b6000613c92602083612adb565b9150613c9d82613c5c565b602082019050919050565b60006020820190508181036000830152613cc181613c85565b9050919050565b7f4552433732313a20746f6b656e20616c7265616479206d696e74656400000000600082015250565b6000613cfe601c83612adb565b9150613d0982613cc8565b602082019050919050565b60006020820190508181036000830152613d2d81613cf1565b9050919050565b7f45524337323155524953746f726167653a2055524920736574206f66206e6f6e60008201527f6578697374656e7420746f6b656e000000000000000000000000000000000000602082015250565b6000613d90602e83612adb565b9150613d9b82613d34565b604082019050919050565b60006020820190508181036000830152613dbf81613d83565b9050919050565b60008190508160005260206000209050919050565b60006020601f8301049050919050565b600082821b905092915050565b600060088302613e287fffffffffffffffffffffffffffffffffffffffffffffffffffffffffffffffff82613deb565b613e328683613deb565b95508019841693508086168417925050509392505050565b6000819050919050565b6000613e6f613e6a613e6584612b82565b613e4a565b612b82565b9050919050565b6000819050919050565b613e8983613e54565b613e9d613e9582613e76565b848454613df8565b825550505050565b600090565b613eb2613ea5565b613ebd818484613e80565b505050565b5b81811015613ee157613ed6600082613eaa565b600181019050613ec3565b5050565b601f821115613f2657613ef781613dc6565b613f0084613ddb565b81016020851015613f0f578190505b613f23613f1b85613ddb565b830182613ec2565b50505b505050565b600082821c905092915050565b6000613f4960001984600802613f2b565b1980831691505092915050565b6000613f628383613f38565b9150826002028217905092915050565b613f7b82612ad0565b67ffffffffffffffff811115613f9457613f93612d9d565b5b613f9e82546132da565b613fa9828285613ee5565b600060209050601f831160018114613fdc5760008415613fca578287015190505b613fd48582613f56565b86555061403c565b601f198416613fea86613dc6565b60005b8281101561401257848901518255600182019150602085019450602081019050613fed565b8683101561402f578489015161402b601f891682613f38565b8355505b6001600288020188555050505b505050505050565b7f4552433732313a207472616e7366657220746f206e6f6e20455243373231526560008201527f63656976657220696d706c656d656e7465720000000000000000000000000000602082015250565b60006140a0603283612adb565b91506140ab82614044565b604082019050919050565b600060208201905081810360008301526140cf81614093565b9050919050565b60006140e2828561370e565b91506140ee828461370e565b91508190509392505050565b600081519050919050565b600082825260208201905092915050565b6000614121826140fa565b61412b8185614105565b935061413b818560208601612aec565b61414481612b16565b840191505092915050565b60006080820190506141646000830187612c17565b6141716020830186612c17565b61417e6040830185612cad565b81810360608301526141908184614116565b905095945050505050565b6000815190506141aa81612a41565b92915050565b6000602082840312156141c6576141c5612a0b565b5b60006141d48482850161419b565b91505092915050565b7f4e487b7100000000000000000000000000000000000000000000000000000000600052601260045260246000fdfea26469706673582212200124b54357b25156594dae1a5fcb199dd4e359499f1c7101509613928b9c016764736f6c63430008110033",
  "linkReferences": {},
  "deployedLinkReferences": {}
}