{
  "_format": "hh-sol-artifact-1",
  "contractName": "ThreeBricks",
  "sourceName": "contracts/ThreeBricks.sol",
  "abi": [
    {
      "inputs": [],
      "stateMutability": "nonpayable",
      "type": "constructor"
    },
    {
      "anonymous": false,
      "inputs": [
        {
          "indexed": true,
          "internalType": "address",
          "name": "owner",
          "type": "address"
        },
        {
          "indexed": true,
          "internalType": "address",
          "name": "approved",
          "type": "address"
        },
        {
          "indexed": true,
          "internalType": "uint256",
          "name": "tokenId",
          "type": "uint256"
        }
      ],
      "name": "Approval",
      "type": "event"
    },
    {
      "anonymous": false,
      "inputs": [
        {
          "indexed": true,
          "internalType": "address",
          "name": "owner",
          "type": "address"
        },
        {
          "indexed": true,
          "internalType": "address",
          "name": "operator",
          "type": "address"
        },
        {
          "indexed": false,
          "internalType": "bool",
          "name": "approved",
          "type": "bool"
        }
      ],
      "name": "ApprovalForAll",
      "type": "event"
    },
    {
      "anonymous": false,
      "inputs": [
        {
          "indexed": false,
          "internalType": "uint256",
          "name": "_fromTokenId",
          "type": "uint256"
        },
        {
          "indexed": false,
          "internalType": "uint256",
          "name": "_toTokenId",
          "type": "uint256"
        }
      ],
      "name": "BatchMetadataUpdate",
      "type": "event"
    },
    {
      "anonymous": false,
      "inputs": [
        {
          "indexed": false,
          "internalType": "uint256",
          "name": "_tokenId",
          "type": "uint256"
        }
      ],
      "name": "MetadataUpdate",
      "type": "event"
    },
    {
      "anonymous": false,
      "inputs": [
        {
          "indexed": true,
          "internalType": "address",
          "name": "previousOwner",
          "type": "address"
        },
        {
          "indexed": true,
          "internalType": "address",
          "name": "newOwner",
          "type": "address"
        }
      ],
      "name": "OwnershipTransferred",
      "type": "event"
    },
    {
      "anonymous": false,
      "inputs": [
        {
          "indexed": true,
          "internalType": "address",
          "name": "from",
          "type": "address"
        },
        {
          "indexed": true,
          "internalType": "address",
          "name": "to",
          "type": "address"
        },
        {
          "indexed": true,
          "internalType": "uint256",
          "name": "tokenId",
          "type": "uint256"
        }
      ],
      "name": "Transfer",
      "type": "event"
    },
    {
      "inputs": [
        {
          "internalType": "uint256",
          "name": "tokenId",
          "type": "uint256"
        },
        {
          "internalType": "address",
          "name": "chosenBuyer",
          "type": "address"
        }
      ],
      "name": "NFTOwnerStartEscrow",
      "outputs": [],
      "stateMutability": "nonpayable",
      "type": "function"
    },
    {
      "inputs": [],
      "name": "_tokenIdCounter",
      "outputs": [
        {
          "internalType": "uint256",
          "name": "_value",
          "type": "uint256"
        }
      ],
      "stateMutability": "view",
      "type": "function"
    },
    {
      "inputs": [
        {
          "internalType": "address",
          "name": "to",
          "type": "address"
        },
        {
          "internalType": "uint256",
          "name": "tokenId",
          "type": "uint256"
        }
      ],
      "name": "approve",
      "outputs": [],
      "stateMutability": "nonpayable",
      "type": "function"
    },
    {
      "inputs": [
        {
          "internalType": "address",
          "name": "owner",
          "type": "address"
        }
      ],
      "name": "balanceOf",
      "outputs": [
        {
          "internalType": "uint256",
          "name": "",
          "type": "uint256"
        }
      ],
      "stateMutability": "view",
      "type": "function"
    },
    {
      "inputs": [
        {
          "internalType": "address",
          "name": "",
          "type": "address"
        }
      ],
      "name": "buyerAddressToBuyerPayableAddress",
      "outputs": [
        {
          "internalType": "address payable",
          "name": "",
          "type": "address"
        }
      ],
      "stateMutability": "view",
      "type": "function"
    },
    {
      "inputs": [
        {
          "internalType": "address",
          "name": "",
          "type": "address"
        }
      ],
      "name": "buyerAddressToDownPayment",
      "outputs": [
        {
          "internalType": "uint256",
          "name": "",
          "type": "uint256"
        }
      ],
      "stateMutability": "view",
      "type": "function"
    },
    {
      "inputs": [
        {
          "internalType": "uint256",
          "name": "tokenId",
          "type": "uint256"
        }
      ],
      "name": "completePaymentAndEsrow",
      "outputs": [],
      "stateMutability": "payable",
      "type": "function"
    },
    {
      "inputs": [
        {
          "internalType": "uint256",
          "name": "tokenId",
          "type": "uint256"
        },
        {
          "internalType": "uint256",
          "name": "_propertyPrice",
          "type": "uint256"
        },
        {
          "internalType": "uint256",
          "name": "_downPayment",
          "type": "uint256"
        }
      ],
      "name": "createPropertyListing",
      "outputs": [],
      "stateMutability": "nonpayable",
      "type": "function"
    },
    {
      "inputs": [
        {
          "internalType": "uint256",
          "name": "",
          "type": "uint256"
        }
      ],
      "name": "downPayment",
      "outputs": [
        {
          "internalType": "uint256",
          "name": "",
          "type": "uint256"
        }
      ],
      "stateMutability": "view",
      "type": "function"
    },
    {
      "inputs": [
        {
          "internalType": "uint256",
          "name": "tokenId",
          "type": "uint256"
        }
      ],
      "name": "getApproved",
      "outputs": [
        {
          "internalType": "address",
          "name": "",
          "type": "address"
        }
      ],
      "stateMutability": "view",
      "type": "function"
    },
    {
      "inputs": [],
      "name": "getCurrentTokenIdCounter",
      "outputs": [
        {
          "internalType": "uint256",
          "name": "",
          "type": "uint256"
        }
      ],
      "stateMutability": "view",
      "type": "function"
    },
    {
      "inputs": [
        {
          "internalType": "address",
          "name": "owner",
          "type": "address"
        },
        {
          "internalType": "address",
          "name": "operator",
          "type": "address"
        }
      ],
      "name": "isApprovedForAll",
      "outputs": [
        {
          "internalType": "bool",
          "name": "",
          "type": "bool"
        }
      ],
      "stateMutability": "view",
      "type": "function"
    },
    {
      "inputs": [
        {
          "internalType": "string",
          "name": "uri",
          "type": "string"
        }
      ],
      "name": "isContentOwned",
      "outputs": [
        {
          "internalType": "bool",
          "name": "",
          "type": "bool"
        }
      ],
      "stateMutability": "view",
      "type": "function"
    },
    {
      "inputs": [
        {
          "internalType": "uint256",
          "name": "tokenId",
          "type": "uint256"
        },
        {
          "internalType": "address payable",
          "name": "userPayableAddress",
          "type": "address"
        }
      ],
      "name": "makeDownPayment",
      "outputs": [],
      "stateMutability": "payable",
      "type": "function"
    },
    {
      "inputs": [
        {
          "internalType": "address",
          "name": "recipient",
          "type": "address"
        },
        {
          "internalType": "string",
          "name": "ipfsTitleDeedURI",
          "type": "string"
        },
        {
          "internalType": "string",
          "name": "propertyId",
          "type": "string"
        }
      ],
      "name": "mintNFT",
      "outputs": [
        {
          "internalType": "uint256",
          "name": "",
          "type": "uint256"
        }
      ],
      "stateMutability": "nonpayable",
      "type": "function"
    },
    {
      "inputs": [],
      "name": "name",
      "outputs": [
        {
          "internalType": "string",
          "name": "",
          "type": "string"
        }
      ],
      "stateMutability": "view",
      "type": "function"
    },
    {
      "inputs": [],
      "name": "owner",
      "outputs": [
        {
          "internalType": "address",
          "name": "",
          "type": "address"
        }
      ],
      "stateMutability": "view",
      "type": "function"
    },
    {
      "inputs": [
        {
          "internalType": "uint256",
          "name": "tokenId",
          "type": "uint256"
        }
      ],
      "name": "ownerOf",
      "outputs": [
        {
          "internalType": "address",
          "name": "",
          "type": "address"
        }
      ],
      "stateMutability": "view",
      "type": "function"
    },
    {
      "inputs": [
        {
          "internalType": "uint256",
          "name": "",
          "type": "uint256"
        }
      ],
      "name": "propertyPrice",
      "outputs": [
        {
          "internalType": "uint256",
          "name": "",
          "type": "uint256"
        }
      ],
      "stateMutability": "view",
      "type": "function"
    },
    {
      "inputs": [
        {
          "internalType": "uint256",
          "name": "tokenId",
          "type": "uint256"
        },
        {
          "internalType": "address",
          "name": "_buyerAddress",
          "type": "address"
        }
      ],
      "name": "releaseDownPayment",
      "outputs": [],
      "stateMutability": "payable",
      "type": "function"
    },
    {
      "inputs": [],
      "name": "renounceOwnership",
      "outputs": [],
      "stateMutability": "nonpayable",
      "type": "function"
    },
    {
      "inputs": [
        {
          "internalType": "address",
          "name": "from",
          "type": "address"
        },
        {
          "internalType": "address",
          "name": "to",
          "type": "address"
        },
        {
          "internalType": "uint256",
          "name": "tokenId",
          "type": "uint256"
        }
      ],
      "name": "safeTransferFrom",
      "outputs": [],
      "stateMutability": "nonpayable",
      "type": "function"
    },
    {
      "inputs": [
        {
          "internalType": "address",
          "name": "from",
          "type": "address"
        },
        {
          "internalType": "address",
          "name": "to",
          "type": "address"
        },
        {
          "internalType": "uint256",
          "name": "tokenId",
          "type": "uint256"
        },
        {
          "internalType": "bytes",
          "name": "data",
          "type": "bytes"
        }
      ],
      "name": "safeTransferFrom",
      "outputs": [],
      "stateMutability": "nonpayable",
      "type": "function"
    },
    {
      "inputs": [
        {
          "internalType": "address",
          "name": "operator",
          "type": "address"
        },
        {
          "internalType": "bool",
          "name": "approved",
          "type": "bool"
        }
      ],
      "name": "setApprovalForAll",
      "outputs": [],
      "stateMutability": "nonpayable",
      "type": "function"
    },
    {
      "inputs": [
        {
          "internalType": "bytes4",
          "name": "interfaceId",
          "type": "bytes4"
        }
      ],
      "name": "supportsInterface",
      "outputs": [
        {
          "internalType": "bool",
          "name": "",
          "type": "bool"
        }
      ],
      "stateMutability": "view",
      "type": "function"
    },
    {
      "inputs": [],
      "name": "symbol",
      "outputs": [
        {
          "internalType": "string",
          "name": "",
          "type": "string"
        }
      ],
      "stateMutability": "view",
      "type": "function"
    },
    {
      "inputs": [
        {
          "internalType": "uint256",
          "name": "",
          "type": "uint256"
        },
        {
          "internalType": "uint256",
          "name": "",
          "type": "uint256"
        }
      ],
      "name": "tokenIdToBuyerAddress",
      "outputs": [
        {
          "internalType": "address",
          "name": "",
          "type": "address"
        }
      ],
      "stateMutability": "view",
      "type": "function"
    },
    {
      "inputs": [
        {
          "internalType": "uint256",
          "name": "tokenId",
          "type": "uint256"
        }
      ],
      "name": "tokenURI",
      "outputs": [
        {
          "internalType": "string",
          "name": "",
          "type": "string"
        }
      ],
      "stateMutability": "view",
      "type": "function"
    },
    {
      "inputs": [
        {
          "internalType": "address",
          "name": "from",
          "type": "address"
        },
        {
          "internalType": "address",
          "name": "to",
          "type": "address"
        },
        {
          "internalType": "uint256",
          "name": "tokenId",
          "type": "uint256"
        }
      ],
      "name": "transfer",
      "outputs": [],
      "stateMutability": "nonpayable",
      "type": "function"
    },
    {
      "inputs": [
        {
          "internalType": "address",
          "name": "from",
          "type": "address"
        },
        {
          "internalType": "address",
          "name": "to",
          "type": "address"
        },
        {
          "internalType": "uint256",
          "name": "tokenId",
          "type": "uint256"
        }
      ],
      "name": "transferFrom",
      "outputs": [],
      "stateMutability": "nonpayable",
      "type": "function"
    },
    {
      "inputs": [
        {
          "internalType": "address",
          "name": "newOwner",
          "type": "address"
        }
      ],
      "name": "transferOwnership",
      "outputs": [],
      "stateMutability": "nonpayable",
      "type": "function"
    }
  ],
  "bytecode": "0x60806040523480156200001157600080fd5b506040518060400160405280600b81526020017f5468726565427269636b730000000000000000000000000000000000000000008152506040518060400160405280600481526020017f544252530000000000000000000000000000000000000000000000000000000081525081600090816200008f919062000412565b508060019081620000a1919062000412565b505050620000c4620000b8620000ca60201b60201c565b620000d260201b60201c565b620004f9565b600033905090565b6000600760009054906101000a900473ffffffffffffffffffffffffffffffffffffffff16905081600760006101000a81548173ffffffffffffffffffffffffffffffffffffffff021916908373ffffffffffffffffffffffffffffffffffffffff1602179055508173ffffffffffffffffffffffffffffffffffffffff168173ffffffffffffffffffffffffffffffffffffffff167f8be0079c531659141344cd1fd0a4f28419497f9722a3daafe3b4186f6b6457e060405160405180910390a35050565b600081519050919050565b7f4e487b7100000000000000000000000000000000000000000000000000000000600052604160045260246000fd5b7f4e487b7100000000000000000000000000000000000000000000000000000000600052602260045260246000fd5b600060028204905060018216806200021a57607f821691505b60208210810362000230576200022f620001d2565b5b50919050565b60008190508160005260206000209050919050565b60006020601f8301049050919050565b600082821b905092915050565b6000600883026200029a7fffffffffffffffffffffffffffffffffffffffffffffffffffffffffffffffff826200025b565b620002a686836200025b565b95508019841693508086168417925050509392505050565b6000819050919050565b6000819050919050565b6000620002f3620002ed620002e784620002be565b620002c8565b620002be565b9050919050565b6000819050919050565b6200030f83620002d2565b620003276200031e82620002fa565b84845462000268565b825550505050565b600090565b6200033e6200032f565b6200034b81848462000304565b505050565b5b8181101562000373576200036760008262000334565b60018101905062000351565b5050565b601f821115620003c2576200038c8162000236565b62000397846200024b565b81016020851015620003a7578190505b620003bf620003b6856200024b565b83018262000350565b50505b505050565b600082821c905092915050565b6000620003e760001984600802620003c7565b1980831691505092915050565b6000620004028383620003d4565b9150826002028217905092915050565b6200041d8262000198565b67ffffffffffffffff811115620004395762000438620001a3565b5b62000445825462000201565b6200045282828562000377565b600060209050601f8311600181146200048a576000841562000475578287015190505b620004818582620003f4565b865550620004f1565b601f1984166200049a8662000236565b60005b82811015620004c4578489015182556001820191506020850194506020810190506200049d565b86831015620004e45784890151620004e0601f891682620003d4565b8355505b6001600288020188555050505b505050505050565b6141f880620005096000396000f3fe6080604052600436106101d85760003560e01c80638c6743e011610102578063b88d4fde11610095578063c87b56dd11610064578063c87b56dd146106ea578063e985e9c514610727578063f2fde38b14610764578063f3020d831461078d576101d8565b8063b88d4fde14610632578063bd1157a91461065b578063beabacc814610698578063c12e1a07146106c1576101d8565b8063a22cb465116100d1578063a22cb46514610587578063a3ee38ae146105b0578063a983fa49146105ed578063b364cf7d14610609576101d8565b80638c6743e0146104c95780638da5cb5b146104f457806395d89b411461051f5780639f1cabc61461054a576101d8565b80633a28551e1161017a57806370a082311161014957806370a082311461040d578063715018a61461044a578063747f9b4f1461046157806384c4bd4b1461049e576101d8565b80633a28551e1461032d57806342842e0e1461036a5780634412e439146103935780636352211e146103d0576101d8565b8063095ea7b3116101b6578063095ea7b31461028257806309f5c475146102ab57806314050c5a146102c757806323b872dd14610304576101d8565b806301ffc9a7146101dd57806306fdde031461021a578063081812fc14610245575b600080fd5b3480156101e957600080fd5b5061020460048036038101906101ff9190612925565b6107a9565b604051610211919061296d565b60405180910390f35b34801561022657600080fd5b5061022f6107cb565b60405161023c9190612a18565b60405180910390f35b34801561025157600080fd5b5061026c60048036038101906102679190612a70565b61085d565b6040516102799190612ade565b60405180910390f35b34801561028e57600080fd5b506102a960048036038101906102a49190612b25565b6108a3565b005b6102c560048036038101906102c09190612a70565b6109ba565b005b3480156102d357600080fd5b506102ee60048036038101906102e99190612a70565b610a3c565b6040516102fb9190612b74565b60405180910390f35b34801561031057600080fd5b5061032b60048036038101906103269190612b8f565b610a54565b005b34801561033957600080fd5b50610354600480360381019061034f9190612be2565b610ab4565b6040516103619190612c30565b60405180910390f35b34801561037657600080fd5b50610391600480360381019061038c9190612b8f565b610ae7565b005b34801561039f57600080fd5b506103ba60048036038101906103b59190612be2565b610c1e565b6040516103c79190612b74565b60405180910390f35b3480156103dc57600080fd5b506103f760048036038101906103f29190612a70565b610c36565b6040516104049190612ade565b60405180910390f35b34801561041957600080fd5b50610434600480360381019061042f9190612be2565b610cbc565b6040516104419190612b74565b60405180910390f35b34801561045657600080fd5b5061045f610d73565b005b34801561046d57600080fd5b5061048860048036038101906104839190612a70565b610d87565b6040516104959190612b74565b60405180910390f35b3480156104aa57600080fd5b506104b3610d9f565b6040516104c09190612b74565b60405180910390f35b3480156104d557600080fd5b506104de610dab565b6040516104eb9190612b74565b60405180910390f35b34801561050057600080fd5b50610509610dc1565b6040516105169190612ade565b60405180910390f35b34801561052b57600080fd5b50610534610deb565b6040516105419190612a18565b60405180910390f35b34801561055657600080fd5b50610571600480360381019061056c9190612d80565b610e7d565b60405161057e919061296d565b60405180910390f35b34801561059357600080fd5b506105ae60048036038101906105a99190612df5565b610eb8565b005b3480156105bc57600080fd5b506105d760048036038101906105d29190612e35565b610ece565b6040516105e49190612b74565b60405180910390f35b61060760048036038101906106029190612eec565b610fd4565b005b34801561061557600080fd5b50610630600480360381019061062b9190612f2c565b611102565b005b34801561063e57600080fd5b506106596004803603810190610654919061300d565b611289565b005b34801561066757600080fd5b50610682600480360381019061067d9190613090565b6112eb565b60405161068f9190612ade565b60405180910390f35b3480156106a457600080fd5b506106bf60048036038101906106ba9190612b8f565b611339565b005b3480156106cd57600080fd5b506106e860048036038101906106e391906130d0565b611349565b005b3480156106f657600080fd5b50610711600480360381019061070c9190612a70565b6113c7565b60405161071e9190612a18565b60405180910390f35b34801561073357600080fd5b5061074e60048036038101906107499190613123565b6113d9565b60405161075b919061296d565b60405180910390f35b34801561077057600080fd5b5061078b60048036038101906107869190612be2565b61146d565b005b6107a760048036038101906107a29190612f2c565b6114f0565b005b60006107b4826115c1565b806107c457506107c3826116a3565b5b9050919050565b6060600080546107da90613192565b80601f016020809104026020016040519081016040528092919081815260200182805461080690613192565b80156108535780601f1061082857610100808354040283529160200191610853565b820191906000526020600020905b81548152906001019060200180831161083657829003601f168201915b5050505050905090565b600061086882611704565b6004600083815260200190815260200160002060009054906101000a900473ffffffffffffffffffffffffffffffffffffffff169050919050565b60006108ae82610c36565b90508073ffffffffffffffffffffffffffffffffffffffff168373ffffffffffffffffffffffffffffffffffffffff160361091e576040517f08c379a000000000000000000000000000000000000000000000000000000000815260040161091590613235565b60405180910390fd5b8073ffffffffffffffffffffffffffffffffffffffff1661093d61174f565b73ffffffffffffffffffffffffffffffffffffffff16148061096c575061096b8161096661174f565b6113d9565b5b6109ab576040517f08c379a00000000000000000000000000000000000000000000000000000000081526004016109a2906132c7565b60405180910390fd5b6109b58383611757565b505050565b600c600082815260200190815260200160002054600b6000838152602001908152602001600020546109ec9190613316565b341015610a2e576040517f08c379a0000000000000000000000000000000000000000000000000000000008152600401610a2590613396565b60405180910390fd5b610a39303383611339565b50565b600b6020528060005260406000206000915090505481565b610a65610a5f61174f565b82611810565b610aa4576040517f08c379a0000000000000000000000000000000000000000000000000000000008152600401610a9b90613428565b60405180910390fd5b610aaf8383836118a5565b505050565b600f6020528060005260406000206000915054906101000a900473ffffffffffffffffffffffffffffffffffffffff1681565b600073ffffffffffffffffffffffffffffffffffffffff168373ffffffffffffffffffffffffffffffffffffffff1603610b56576040517f08c379a0000000000000000000000000000000000000000000000000000000008152600401610b4d90613494565b60405180910390fd5b600073ffffffffffffffffffffffffffffffffffffffff168273ffffffffffffffffffffffffffffffffffffffff1603610bc5576040517f08c379a0000000000000000000000000000000000000000000000000000000008152600401610bbc90613500565b60405180910390fd5b610bcf8382611810565b610c0e576040517f08c379a0000000000000000000000000000000000000000000000000000000008152600401610c059061356c565b60405180910390fd5b610c198383836118a5565b505050565b600e6020528060005260406000206000915090505481565b600080610c4283611b9e565b9050600073ffffffffffffffffffffffffffffffffffffffff168173ffffffffffffffffffffffffffffffffffffffff1603610cb3576040517f08c379a0000000000000000000000000000000000000000000000000000000008152600401610caa906135d8565b60405180910390fd5b80915050919050565b60008073ffffffffffffffffffffffffffffffffffffffff168273ffffffffffffffffffffffffffffffffffffffff1603610d2c576040517f08c379a0000000000000000000000000000000000000000000000000000000008152600401610d239061366a565b60405180910390fd5b600360008373ffffffffffffffffffffffffffffffffffffffff1673ffffffffffffffffffffffffffffffffffffffff168152602001908152602001600020549050919050565b610d7b611bdb565b610d856000611c59565b565b600c6020528060005260406000206000915090505481565b60088060000154905081565b600080610db86008611d1f565b90508091505090565b6000600760009054906101000a900473ffffffffffffffffffffffffffffffffffffffff16905090565b606060018054610dfa90613192565b80601f0160208091040260200160405190810160405280929190818152602001828054610e2690613192565b8015610e735780601f10610e4857610100808354040283529160200191610e73565b820191906000526020600020905b815481529060010190602001808311610e5657829003601f168201915b5050505050905090565b60006001600983604051610e9191906136c6565b908152602001604051809103902060009054906101000a900460ff1660ff16149050919050565b610eca610ec361174f565b8383611d2d565b5050565b6000610ed8611bdb565b610ee183610e7d565b15610f21576040517f08c379a0000000000000000000000000000000000000000000000000000000008152600401610f1890613729565b60405180910390fd5b6000610f2b610dab565b9050610f376008611e99565b6001600985604051610f4991906136c6565b908152602001604051809103902060006101000a81548160ff021916908360ff160217905550604051806020016040528084815250600a85604051610f8e91906136c6565b9081526020016040518091039020906001610faa9291906127df565b50610fb58582611eaf565b610fbf81856120cc565b610fc93382611757565b809150509392505050565b600c60008381526020019081526020016000205434101561102a576040517f08c379a000000000000000000000000000000000000000000000000000000000815260040161102190613795565b60405180910390fd5b34600e60003373ffffffffffffffffffffffffffffffffffffffff1673ffffffffffffffffffffffffffffffffffffffff168152602001908152602001600020600082825461107991906137b5565b9250508190555080600f60003373ffffffffffffffffffffffffffffffffffffffff1673ffffffffffffffffffffffffffffffffffffffff16815260200190815260200160002060006101000a81548173ffffffffffffffffffffffffffffffffffffffff021916908373ffffffffffffffffffffffffffffffffffffffff1602179055505050565b61110c3383611810565b61114b576040517f08c379a00000000000000000000000000000000000000000000000000000000081526004016111429061385b565b60405180910390fd5b611156333084611339565b6000600d60008481526020019081526020016000208054806020026020016040519081016040528092919081815260200182805480156111eb57602002820191906000526020600020905b8160009054906101000a900473ffffffffffffffffffffffffffffffffffffffff1673ffffffffffffffffffffffffffffffffffffffff16815260200190600101908083116111a1575b5050505050905060005b8151811015611283578273ffffffffffffffffffffffffffffffffffffffff168282815181106112285761122761387b565b5b602002602001015173ffffffffffffffffffffffffffffffffffffffff16146112705761126f848383815181106112625761126161387b565b5b60200260200101516114f0565b5b808061127b906138aa565b9150506111f5565b50505050565b61129a61129461174f565b83611810565b6112d9576040517f08c379a00000000000000000000000000000000000000000000000000000000081526004016112d090613428565b60405180910390fd5b6112e584848484612170565b50505050565b600d602052816000526040600020818154811061130757600080fd5b906000526020600020016000915091509054906101000a900473ffffffffffffffffffffffffffffffffffffffff1681565b611344838383610ae7565b505050565b6113533384611810565b611392576040517f08c379a000000000000000000000000000000000000000000000000000000000815260040161138990613964565b60405180910390fd5b81600b60008581526020019081526020016000208190555080600c600085815260200190815260200160002081905550505050565b60606113d2826121cc565b9050919050565b6000600560008473ffffffffffffffffffffffffffffffffffffffff1673ffffffffffffffffffffffffffffffffffffffff16815260200190815260200160002060008373ffffffffffffffffffffffffffffffffffffffff1673ffffffffffffffffffffffffffffffffffffffff16815260200190815260200160002060009054906101000a900460ff16905092915050565b611475611bdb565b600073ffffffffffffffffffffffffffffffffffffffff168173ffffffffffffffffffffffffffffffffffffffff16036114e4576040517f08c379a00000000000000000000000000000000000000000000000000000000081526004016114db906139f6565b60405180910390fd5b6114ed81611c59565b50565b6114f8611bdb565b6000600f60008373ffffffffffffffffffffffffffffffffffffffff1673ffffffffffffffffffffffffffffffffffffffff16815260200190815260200160002060009054906101000a900473ffffffffffffffffffffffffffffffffffffffff1690506000600c60008581526020019081526020016000205490508173ffffffffffffffffffffffffffffffffffffffff166108fc829081150290604051600060405180830381858888f193505050501580156115ba573d6000803e3d6000fd5b5050505050565b60007f80ac58cd000000000000000000000000000000000000000000000000000000007bffffffffffffffffffffffffffffffffffffffffffffffffffffffff1916827bffffffffffffffffffffffffffffffffffffffffffffffffffffffff1916148061168c57507f5b5e139f000000000000000000000000000000000000000000000000000000007bffffffffffffffffffffffffffffffffffffffffffffffffffffffff1916827bffffffffffffffffffffffffffffffffffffffffffffffffffffffff1916145b8061169c575061169b826122de565b5b9050919050565b6000634906490660e01b7bffffffffffffffffffffffffffffffffffffffffffffffffffffffff1916827bffffffffffffffffffffffffffffffffffffffffffffffffffffffff191614806116fd57506116fc826115c1565b5b9050919050565b61170d81612348565b61174c576040517f08c379a0000000000000000000000000000000000000000000000000000000008152600401611743906135d8565b60405180910390fd5b50565b600033905090565b816004600083815260200190815260200160002060006101000a81548173ffffffffffffffffffffffffffffffffffffffff021916908373ffffffffffffffffffffffffffffffffffffffff160217905550808273ffffffffffffffffffffffffffffffffffffffff166117ca83610c36565b73ffffffffffffffffffffffffffffffffffffffff167f8c5be1e5ebec7d5bd14f71427d1e84f3dd0314c0f7b2291e5b200ac8c7c3b92560405160405180910390a45050565b60008061181c83610c36565b90508073ffffffffffffffffffffffffffffffffffffffff168473ffffffffffffffffffffffffffffffffffffffff16148061185e575061185d81856113d9565b5b8061189c57508373ffffffffffffffffffffffffffffffffffffffff166118848461085d565b73ffffffffffffffffffffffffffffffffffffffff16145b91505092915050565b8273ffffffffffffffffffffffffffffffffffffffff166118c582610c36565b73ffffffffffffffffffffffffffffffffffffffff161461191b576040517f08c379a000000000000000000000000000000000000000000000000000000000815260040161191290613a88565b60405180910390fd5b600073ffffffffffffffffffffffffffffffffffffffff168273ffffffffffffffffffffffffffffffffffffffff160361198a576040517f08c379a000000000000000000000000000000000000000000000000000000000815260040161198190613b1a565b60405180910390fd5b6119978383836001612389565b8273ffffffffffffffffffffffffffffffffffffffff166119b782610c36565b73ffffffffffffffffffffffffffffffffffffffff1614611a0d576040517f08c379a0000000000000000000000000000000000000000000000000000000008152600401611a0490613a88565b60405180910390fd5b6004600082815260200190815260200160002060006101000a81549073ffffffffffffffffffffffffffffffffffffffff02191690556001600360008573ffffffffffffffffffffffffffffffffffffffff1673ffffffffffffffffffffffffffffffffffffffff168152602001908152602001600020600082825403925050819055506001600360008473ffffffffffffffffffffffffffffffffffffffff1673ffffffffffffffffffffffffffffffffffffffff16815260200190815260200160002060008282540192505081905550816002600083815260200190815260200160002060006101000a81548173ffffffffffffffffffffffffffffffffffffffff021916908373ffffffffffffffffffffffffffffffffffffffff160217905550808273ffffffffffffffffffffffffffffffffffffffff168473ffffffffffffffffffffffffffffffffffffffff167fddf252ad1be2c89b69c2b068fc378daa952ba7f163c4a11628f55a4df523b3ef60405160405180910390a4611b99838383600161238f565b505050565b60006002600083815260200190815260200160002060009054906101000a900473ffffffffffffffffffffffffffffffffffffffff169050919050565b611be361174f565b73ffffffffffffffffffffffffffffffffffffffff16611c01610dc1565b73ffffffffffffffffffffffffffffffffffffffff1614611c57576040517f08c379a0000000000000000000000000000000000000000000000000000000008152600401611c4e90613b86565b60405180910390fd5b565b6000600760009054906101000a900473ffffffffffffffffffffffffffffffffffffffff16905081600760006101000a81548173ffffffffffffffffffffffffffffffffffffffff021916908373ffffffffffffffffffffffffffffffffffffffff1602179055508173ffffffffffffffffffffffffffffffffffffffff168173ffffffffffffffffffffffffffffffffffffffff167f8be0079c531659141344cd1fd0a4f28419497f9722a3daafe3b4186f6b6457e060405160405180910390a35050565b600081600001549050919050565b8173ffffffffffffffffffffffffffffffffffffffff168373ffffffffffffffffffffffffffffffffffffffff1603611d9b576040517f08c379a0000000000000000000000000000000000000000000000000000000008152600401611d9290613bf2565b60405180910390fd5b80600560008573ffffffffffffffffffffffffffffffffffffffff1673ffffffffffffffffffffffffffffffffffffffff16815260200190815260200160002060008473ffffffffffffffffffffffffffffffffffffffff1673ffffffffffffffffffffffffffffffffffffffff16815260200190815260200160002060006101000a81548160ff0219169083151502179055508173ffffffffffffffffffffffffffffffffffffffff168373ffffffffffffffffffffffffffffffffffffffff167f17307eab39ab6107e8899845ad3d59bd9653f200f220920489ca2b5937696c3183604051611e8c919061296d565b60405180910390a3505050565b6001816000016000828254019250508190555050565b600073ffffffffffffffffffffffffffffffffffffffff168273ffffffffffffffffffffffffffffffffffffffff1603611f1e576040517f08c379a0000000000000000000000000000000000000000000000000000000008152600401611f1590613c5e565b60405180910390fd5b611f2781612348565b15611f67576040517f08c379a0000000000000000000000000000000000000000000000000000000008152600401611f5e90613cca565b60405180910390fd5b611f75600083836001612389565b611f7e81612348565b15611fbe576040517f08c379a0000000000000000000000000000000000000000000000000000000008152600401611fb590613cca565b60405180910390fd5b6001600360008473ffffffffffffffffffffffffffffffffffffffff1673ffffffffffffffffffffffffffffffffffffffff16815260200190815260200160002060008282540192505081905550816002600083815260200190815260200160002060006101000a81548173ffffffffffffffffffffffffffffffffffffffff021916908373ffffffffffffffffffffffffffffffffffffffff160217905550808273ffffffffffffffffffffffffffffffffffffffff16600073ffffffffffffffffffffffffffffffffffffffff167fddf252ad1be2c89b69c2b068fc378daa952ba7f163c4a11628f55a4df523b3ef60405160405180910390a46120c860008383600161238f565b5050565b6120d582612348565b612114576040517f08c379a000000000000000000000000000000000000000000000000000000000815260040161210b90613d5c565b60405180910390fd5b806006600084815260200190815260200160002090816121349190613f28565b507ff8e1a15aba9398e019f0b49df1a4fde98ee17ae345cb5f6b5e2c27f5033e8ce7826040516121649190612b74565b60405180910390a15050565b61217b8484846118a5565b61218784848484612395565b6121c6576040517f08c379a00000000000000000000000000000000000000000000000000000000081526004016121bd9061406c565b60405180910390fd5b50505050565b60606121d782611704565b60006006600084815260200190815260200160002080546121f790613192565b80601f016020809104026020016040519081016040528092919081815260200182805461222390613192565b80156122705780601f1061224557610100808354040283529160200191612270565b820191906000526020600020905b81548152906001019060200180831161225357829003601f168201915b50505050509050600061228161251c565b905060008151036122965781925050506122d9565b6000825111156122cb5780826040516020016122b392919061408c565b604051602081830303815290604052925050506122d9565b6122d484612533565b925050505b919050565b60007f01ffc9a7000000000000000000000000000000000000000000000000000000007bffffffffffffffffffffffffffffffffffffffffffffffffffffffff1916827bffffffffffffffffffffffffffffffffffffffffffffffffffffffff1916149050919050565b60008073ffffffffffffffffffffffffffffffffffffffff1661236a83611b9e565b73ffffffffffffffffffffffffffffffffffffffff1614159050919050565b50505050565b50505050565b60006123b68473ffffffffffffffffffffffffffffffffffffffff1661259b565b1561250f578373ffffffffffffffffffffffffffffffffffffffff1663150b7a026123df61174f565b8786866040518563ffffffff1660e01b81526004016124019493929190614105565b6020604051808303816000875af192505050801561243d57506040513d601f19601f8201168201806040525081019061243a9190614166565b60015b6124bf573d806000811461246d576040519150601f19603f3d011682016040523d82523d6000602084013e612472565b606091505b5060008151036124b7576040517f08c379a00000000000000000000000000000000000000000000000000000000081526004016124ae9061406c565b60405180910390fd5b805181602001fd5b63150b7a0260e01b7bffffffffffffffffffffffffffffffffffffffffffffffffffffffff1916817bffffffffffffffffffffffffffffffffffffffffffffffffffffffff191614915050612514565b600190505b949350505050565b606060405180602001604052806000815250905090565b606061253e82611704565b600061254861251c565b905060008151116125685760405180602001604052806000815250612593565b80612572846125be565b60405160200161258392919061408c565b6040516020818303038152906040525b915050919050565b6000808273ffffffffffffffffffffffffffffffffffffffff163b119050919050565b6060600060016125cd8461268c565b01905060008167ffffffffffffffff8111156125ec576125eb612c55565b5b6040519080825280601f01601f19166020018201604052801561261e5781602001600182028036833780820191505090505b509050600082602001820190505b600115612681578080600190039150507f3031323334353637383961626364656600000000000000000000000000000000600a86061a8153600a858161267557612674614193565b5b0494506000850361262c575b819350505050919050565b600080600090507a184f03e93ff9f4daa797ed6e38ed64bf6a1f01000000000000000083106126ea577a184f03e93ff9f4daa797ed6e38ed64bf6a1f01000000000000000083816126e0576126df614193565b5b0492506040810190505b6d04ee2d6d415b85acef81000000008310612727576d04ee2d6d415b85acef8100000000838161271d5761271c614193565b5b0492506020810190505b662386f26fc10000831061275657662386f26fc10000838161274c5761274b614193565b5b0492506010810190505b6305f5e100831061277f576305f5e100838161277557612774614193565b5b0492506008810190505b61271083106127a457612710838161279a57612799614193565b5b0492506004810190505b606483106127c757606483816127bd576127bc614193565b5b0492506002810190505b600a83106127d6576001810190505b80915050919050565b828054828255906000526020600020908101928215612827579160200282015b828111156128265782518290816128169190613f28565b50916020019190600101906127ff565b5b5090506128349190612838565b5090565b5b80821115612858576000818161284f919061285c565b50600101612839565b5090565b50805461286890613192565b6000825580601f1061287a5750612899565b601f016020900490600052602060002090810190612898919061289c565b5b50565b5b808211156128b557600081600090555060010161289d565b5090565b6000604051905090565b600080fd5b600080fd5b60007fffffffff0000000000000000000000000000000000000000000000000000000082169050919050565b612902816128cd565b811461290d57600080fd5b50565b60008135905061291f816128f9565b92915050565b60006020828403121561293b5761293a6128c3565b5b600061294984828501612910565b91505092915050565b60008115159050919050565b61296781612952565b82525050565b6000602082019050612982600083018461295e565b92915050565b600081519050919050565b600082825260208201905092915050565b60005b838110156129c25780820151818401526020810190506129a7565b60008484015250505050565b6000601f19601f8301169050919050565b60006129ea82612988565b6129f48185612993565b9350612a048185602086016129a4565b612a0d816129ce565b840191505092915050565b60006020820190508181036000830152612a3281846129df565b905092915050565b6000819050919050565b612a4d81612a3a565b8114612a5857600080fd5b50565b600081359050612a6a81612a44565b92915050565b600060208284031215612a8657612a856128c3565b5b6000612a9484828501612a5b565b91505092915050565b600073ffffffffffffffffffffffffffffffffffffffff82169050919050565b6000612ac882612a9d565b9050919050565b612ad881612abd565b82525050565b6000602082019050612af36000830184612acf565b92915050565b612b0281612abd565b8114612b0d57600080fd5b50565b600081359050612b1f81612af9565b92915050565b60008060408385031215612b3c57612b3b6128c3565b5b6000612b4a85828601612b10565b9250506020612b5b85828601612a5b565b9150509250929050565b612b6e81612a3a565b82525050565b6000602082019050612b896000830184612b65565b92915050565b600080600060608486031215612ba857612ba76128c3565b5b6000612bb686828701612b10565b9350506020612bc786828701612b10565b9250506040612bd886828701612a5b565b9150509250925092565b600060208284031215612bf857612bf76128c3565b5b6000612c0684828501612b10565b91505092915050565b6000612c1a82612a9d565b9050919050565b612c2a81612c0f565b82525050565b6000602082019050612c456000830184612c21565b92915050565b600080fd5b600080fd5b7f4e487b7100000000000000000000000000000000000000000000000000000000600052604160045260246000fd5b612c8d826129ce565b810181811067ffffffffffffffff82111715612cac57612cab612c55565b5b80604052505050565b6000612cbf6128b9565b9050612ccb8282612c84565b919050565b600067ffffffffffffffff821115612ceb57612cea612c55565b5b612cf4826129ce565b9050602081019050919050565b82818337600083830152505050565b6000612d23612d1e84612cd0565b612cb5565b905082815260208101848484011115612d3f57612d3e612c50565b5b612d4a848285612d01565b509392505050565b600082601f830112612d6757612d66612c4b565b5b8135612d77848260208601612d10565b91505092915050565b600060208284031215612d9657612d956128c3565b5b600082013567ffffffffffffffff811115612db457612db36128c8565b5b612dc084828501612d52565b91505092915050565b612dd281612952565b8114612ddd57600080fd5b50565b600081359050612def81612dc9565b92915050565b60008060408385031215612e0c57612e0b6128c3565b5b6000612e1a85828601612b10565b9250506020612e2b85828601612de0565b9150509250929050565b600080600060608486031215612e4e57612e4d6128c3565b5b6000612e5c86828701612b10565b935050602084013567ffffffffffffffff811115612e7d57612e7c6128c8565b5b612e8986828701612d52565b925050604084013567ffffffffffffffff811115612eaa57612ea96128c8565b5b612eb686828701612d52565b9150509250925092565b612ec981612c0f565b8114612ed457600080fd5b50565b600081359050612ee681612ec0565b92915050565b60008060408385031215612f0357612f026128c3565b5b6000612f1185828601612a5b565b9250506020612f2285828601612ed7565b9150509250929050565b60008060408385031215612f4357612f426128c3565b5b6000612f5185828601612a5b565b9250506020612f6285828601612b10565b9150509250929050565b600067ffffffffffffffff821115612f8757612f86612c55565b5b612f90826129ce565b9050602081019050919050565b6000612fb0612fab84612f6c565b612cb5565b905082815260208101848484011115612fcc57612fcb612c50565b5b612fd7848285612d01565b509392505050565b600082601f830112612ff457612ff3612c4b565b5b8135613004848260208601612f9d565b91505092915050565b60008060008060808587031215613027576130266128c3565b5b600061303587828801612b10565b945050602061304687828801612b10565b935050604061305787828801612a5b565b925050606085013567ffffffffffffffff811115613078576130776128c8565b5b61308487828801612fdf565b91505092959194509250565b600080604083850312156130a7576130a66128c3565b5b60006130b585828601612a5b565b92505060206130c685828601612a5b565b9150509250929050565b6000806000606084860312156130e9576130e86128c3565b5b60006130f786828701612a5b565b935050602061310886828701612a5b565b925050604061311986828701612a5b565b9150509250925092565b6000806040838503121561313a576131396128c3565b5b600061314885828601612b10565b925050602061315985828601612b10565b9150509250929050565b7f4e487b7100000000000000000000000000000000000000000000000000000000600052602260045260246000fd5b600060028204905060018216806131aa57607f821691505b6020821081036131bd576131bc613163565b5b50919050565b7f4552433732313a20617070726f76616c20746f2063757272656e74206f776e6560008201527f7200000000000000000000000000000000000000000000000000000000000000602082015250565b600061321f602183612993565b915061322a826131c3565b604082019050919050565b6000602082019050818103600083015261324e81613212565b9050919050565b7f4552433732313a20617070726f76652063616c6c6572206973206e6f7420746f60008201527f6b656e206f776e6572206f7220617070726f76656420666f7220616c6c000000602082015250565b60006132b1603d83612993565b91506132bc82613255565b604082019050919050565b600060208201905081810360008301526132e0816132a4565b9050919050565b7f4e487b7100000000000000000000000000000000000000000000000000000000600052601160045260246000fd5b600061332182612a3a565b915061332c83612a3a565b9250828203905081811115613344576133436132e7565b5b92915050565b7f706c656173652070617920636f727265637420616d6f756e7400000000000000600082015250565b6000613380601983612993565b915061338b8261334a565b602082019050919050565b600060208201905081810360008301526133af81613373565b9050919050565b7f4552433732313a2063616c6c6572206973206e6f7420746f6b656e206f776e6560008201527f72206f7220617070726f76656400000000000000000000000000000000000000602082015250565b6000613412602d83612993565b915061341d826133b6565b604082019050919050565b6000602082019050818103600083015261344181613405565b9050919050565b7f46726f6d2061646472657373206973206e6f742076616c696400000000000000600082015250565b600061347e601983612993565b915061348982613448565b602082019050919050565b600060208201905081810360008301526134ad81613471565b9050919050565b7f546f2061646472657373206973206e6f742076616c6964000000000000000000600082015250565b60006134ea601783612993565b91506134f5826134b4565b602082019050919050565b60006020820190508181036000830152613519816134dd565b9050919050565b7f5472616e73666572206e6f74207065726d697474656400000000000000000000600082015250565b6000613556601683612993565b915061356182613520565b602082019050919050565b6000602082019050818103600083015261358581613549565b9050919050565b7f4552433732313a20696e76616c696420746f6b656e2049440000000000000000600082015250565b60006135c2601883612993565b91506135cd8261358c565b602082019050919050565b600060208201905081810360008301526135f1816135b5565b9050919050565b7f4552433732313a2061646472657373207a65726f206973206e6f74206120766160008201527f6c6964206f776e65720000000000000000000000000000000000000000000000602082015250565b6000613654602983612993565b915061365f826135f8565b604082019050919050565b6000602082019050818103600083015261368381613647565b9050919050565b600081905092915050565b60006136a082612988565b6136aa818561368a565b93506136ba8185602086016129a4565b80840191505092915050565b60006136d28284613695565b915081905092915050565b7f4e465420616c7265616479206d696e7465640000000000000000000000000000600082015250565b6000613713601283612993565b915061371e826136dd565b602082019050919050565b6000602082019050818103600083015261374281613706565b9050919050565b7f706c65617365206465706f73697420636f727265637420616d6f756e74000000600082015250565b600061377f601d83612993565b915061378a82613749565b602082019050919050565b600060208201905081810360008301526137ae81613772565b9050919050565b60006137c082612a3a565b91506137cb83612a3a565b92508282019050808211156137e3576137e26132e7565b5b92915050565b7f6f6e6c79206f776e6572206f66204e46542063616e207374617274206573637260008201527f6f772070726f6365737300000000000000000000000000000000000000000000602082015250565b6000613845602a83612993565b9150613850826137e9565b604082019050919050565b6000602082019050818103600083015261387481613838565b9050919050565b7f4e487b7100000000000000000000000000000000000000000000000000000000600052603260045260246000fd5b60006138b582612a3a565b91507fffffffffffffffffffffffffffffffffffffffffffffffffffffffffffffffff82036138e7576138e66132e7565b5b600182019050919050565b7f6f6e6c79206f776e6572206f66204e46542063616e20637265617465206c697360008201527f74696e6700000000000000000000000000000000000000000000000000000000602082015250565b600061394e602483612993565b9150613959826138f2565b604082019050919050565b6000602082019050818103600083015261397d81613941565b9050919050565b7f4f776e61626c653a206e6577206f776e657220697320746865207a65726f206160008201527f6464726573730000000000000000000000000000000000000000000000000000602082015250565b60006139e0602683612993565b91506139eb82613984565b604082019050919050565b60006020820190508181036000830152613a0f816139d3565b9050919050565b7f4552433732313a207472616e736665722066726f6d20696e636f72726563742060008201527f6f776e6572000000000000000000000000000000000000000000000000000000602082015250565b6000613a72602583612993565b9150613a7d82613a16565b604082019050919050565b60006020820190508181036000830152613aa181613a65565b9050919050565b7f4552433732313a207472616e7366657220746f20746865207a65726f2061646460008201527f7265737300000000000000000000000000000000000000000000000000000000602082015250565b6000613b04602483612993565b9150613b0f82613aa8565b604082019050919050565b60006020820190508181036000830152613b3381613af7565b9050919050565b7f4f776e61626c653a2063616c6c6572206973206e6f7420746865206f776e6572600082015250565b6000613b70602083612993565b9150613b7b82613b3a565b602082019050919050565b60006020820190508181036000830152613b9f81613b63565b9050919050565b7f4552433732313a20617070726f766520746f2063616c6c657200000000000000600082015250565b6000613bdc601983612993565b9150613be782613ba6565b602082019050919050565b60006020820190508181036000830152613c0b81613bcf565b9050919050565b7f4552433732313a206d696e7420746f20746865207a65726f2061646472657373600082015250565b6000613c48602083612993565b9150613c5382613c12565b602082019050919050565b60006020820190508181036000830152613c7781613c3b565b9050919050565b7f4552433732313a20746f6b656e20616c7265616479206d696e74656400000000600082015250565b6000613cb4601c83612993565b9150613cbf82613c7e565b602082019050919050565b60006020820190508181036000830152613ce381613ca7565b9050919050565b7f45524337323155524953746f726167653a2055524920736574206f66206e6f6e60008201527f6578697374656e7420746f6b656e000000000000000000000000000000000000602082015250565b6000613d46602e83612993565b9150613d5182613cea565b604082019050919050565b60006020820190508181036000830152613d7581613d39565b9050919050565b60008190508160005260206000209050919050565b60006020601f8301049050919050565b600082821b905092915050565b600060088302613dde7fffffffffffffffffffffffffffffffffffffffffffffffffffffffffffffffff82613da1565b613de88683613da1565b95508019841693508086168417925050509392505050565b6000819050919050565b6000613e25613e20613e1b84612a3a565b613e00565b612a3a565b9050919050565b6000819050919050565b613e3f83613e0a565b613e53613e4b82613e2c565b848454613dae565b825550505050565b600090565b613e68613e5b565b613e73818484613e36565b505050565b5b81811015613e9757613e8c600082613e60565b600181019050613e79565b5050565b601f821115613edc57613ead81613d7c565b613eb684613d91565b81016020851015613ec5578190505b613ed9613ed185613d91565b830182613e78565b50505b505050565b600082821c905092915050565b6000613eff60001984600802613ee1565b1980831691505092915050565b6000613f188383613eee565b9150826002028217905092915050565b613f3182612988565b67ffffffffffffffff811115613f4a57613f49612c55565b5b613f548254613192565b613f5f828285613e9b565b600060209050601f831160018114613f925760008415613f80578287015190505b613f8a8582613f0c565b865550613ff2565b601f198416613fa086613d7c565b60005b82811015613fc857848901518255600182019150602085019450602081019050613fa3565b86831015613fe55784890151613fe1601f891682613eee565b8355505b6001600288020188555050505b505050505050565b7f4552433732313a207472616e7366657220746f206e6f6e20455243373231526560008201527f63656976657220696d706c656d656e7465720000000000000000000000000000602082015250565b6000614056603283612993565b915061406182613ffa565b604082019050919050565b6000602082019050818103600083015261408581614049565b9050919050565b60006140988285613695565b91506140a48284613695565b91508190509392505050565b600081519050919050565b600082825260208201905092915050565b60006140d7826140b0565b6140e181856140bb565b93506140f18185602086016129a4565b6140fa816129ce565b840191505092915050565b600060808201905061411a6000830187612acf565b6141276020830186612acf565b6141346040830185612b65565b818103606083015261414681846140cc565b905095945050505050565b600081519050614160816128f9565b92915050565b60006020828403121561417c5761417b6128c3565b5b600061418a84828501614151565b91505092915050565b7f4e487b7100000000000000000000000000000000000000000000000000000000600052601260045260246000fdfea2646970667358221220b1a277d7ddd7e356fd4000e97ee755a0fb3eb2b8e15dfd97efb576ca7f9d196564736f6c63430008110033",
  "linkReferences": {},
  "deployedLinkReferences": {}
}